:020000040800F2
:1000000000000320AD3700088D2900089B29000857
:10001000A1290008A7290008AD2900080000000058
:1000200000000000000000000000000091B1000886
:10003000B329000800000000D1B3000839B400085B
:10004000FD370008FD370008FD370008FD370008C0
:10005000FD370008FD370008FD370008FD370008B0
:10006000FD370008FD370008FD370008FD370008A0
:10007000FD370008FD370008FD370008FD37000890
:10008000FD370008FD370008FD370008FD37000880
:10009000FD370008FD370008FD370008FD37000870
:1000A000FD370008C1290008FD370008FD370008AA
:1000B000FD370008FD370008FD370008FD37000850
:1000C000FD370008FD370008FD370008FD37000840
:1000D000FD370008D5290008FD370008FD37000866
:1000E000E9290008FD370008FD370008FD37000842
:1000F000FD370008FD370008FD370008FD37000810
:10010000FD370008FD370008FD370008FD370008FF
:10011000FD370008FD370008FD370008FD370008EF
:10012000FD370008FD370008FD370008FD370008DF
:10013000FD370008FD370008FD370008FD370008CF
:10014000FD370008FD370008FD370008FD370008BF
:10015000FD370008FD370008FD370008FD370008AF
:10016000FD370008FD370008FD370008FD3700089F
:10017000FD370008FD370008FD37000800000000CB
:10018000FD370008FD370008092A0008FD37000880
:10019000FD370008FD370008FD370008FD3700086F
:0C01A0001D2A0008FD370008312A000865
:1001B00010B5054C237833B9044B13B10448AFF3A1
:1001C00000800123237010BD0859022000000000A8
:1001D0000049020808B5034B1BB103490348AFF3BC
:1001E000008008BD000000000C59022000490208F0
:1001F000034613F8012B002AFBD1181A0138704767
:1002000001F0FF01102A2BDB10F0070F08D010F8C7
:10021000013B013A8B422DD010F0070F42B3F6D1CB
:10022000F0B441EA012141EA014122F007047FF0E4
:1002300000070023F0E80256083C85EA010586EA3B
:10024000010685FA47F5A3FA87F586FA47F6A5FA77
:1002500087F68EB9EED1F0BC01F0FF0102F0070283
:1002600032B110F8013B013A83EA010313B1F8D12E
:100270000020704701387047002D06BF354603380F
:10028000073815F0010F07D1013015F4807F02BF48
:10029000013015F4C03F0130F0BC0138704700BF99
:1002A00053B94AB9002908BF00281CBF4FF0FF31DD
:1002B0004FF0FF3000F072B9ADF1080C6DE904CEDB
:1002C00000F006F8DDF804E0DDE9022304B0704731
:1002D0002DE9F047089E04468846002B4BD18A4200
:1002E000154667D9B2FA82F24AB1C2F1200701FA83
:1002F00002F320FA07F7954047EA030894404FEAD3
:10030000154E230CB8FBFEF71FFA85FC0EFB178871
:1003100043EA084307FB0CF1994209D9EB1807F1AE
:10032000FF3080F01B81994240F21881023F2B443C
:100330005B1AA4B2B3FBFEF00EFB103344EA034495
:1003400000FB0CFCA44509D92C1900F1FF3380F007
:100350000781A44540F2048102382C4440EA07405A
:10036000A4EB0C0400271EB1D4400023C6E90043CF
:100370003946BDE8F0878B4209D9002E00F0EB80AA
:100380000027C6E9000138463946BDE8F087B3FAD0
:1003900083F7002F47D18B4202D3824200F2FA80CA
:1003A000841A61EB030301209846002EE0D0C6E9D1
:1003B0000048DDE702B9FFDEB2FA82F2002A40F01F
:1003C0008F80491B4FEA154E1FFA85F80127B1FBB4
:1003D000FEFC230C0EFB1C1143EA014308FB0CF14D
:1003E000994207D9EB180CF1FF3002D2994200F282
:1003F000CD808446591AA3B2B1FBFEF00EFB101457
:1004000043EA044408FB00F8A04507D92C1900F181
:10041000FF3302D2A04500F2B6801846A4EB0804D0
:1004200040EA0C409FE7C7F1200CBB4022FA0CFECB
:100430004EEA030E01FA07F420FA0CF521FA0CF348
:100440004FEA1E482543B3FBF8F92C0C08FB19337F
:100450001FFA8EFA44EA034309FB0AF49C4202FAAB
:1004600007F200FA07F10BD91EEB030309F1FF3085
:1004700080F087809C4240F28480A9F10209734495
:100480001B1BADB2B3FBF8F008FB103345EA034485
:1004900000FB0AFAA24508D91EEB040400F1FF3361
:1004A0006BD2A24569D90238744440EA0940A0FBE6
:1004B0000289A4EB0A044C45C2464B4654D351D0A2
:1004C000002E69D0B1EB0A0564EB030404FA0CFCBE
:1004D000FD40FC404CEA0505C6E90054002747E70B
:1004E000C2F1200320FA03F7954001FA02F021FA45
:1004F00003F34FEA154E3843010CB3FBFEF71FFA26
:1005000085F80EFB173341EA034107FB08F38B42E2
:1005100004FA02F407D9691807F1FF3C2FD28B4285
:100520002DD9023F2944CB1A81B2B3FBFEF00EFB5A
:10053000103341EA034100FB08F38B4207D96918E5
:1005400000F1FF3C17D28B4215D902382944C91A51
:1005500040EA07473BE73746304609E70746E7E604
:100560001846FBE64145ABD2B8EB020A69EB0E0236
:1005700001381346A4E76046E9E7184695E7674661
:10058000D1E781467CE702382C4447E7ACF1020C06
:100590002B442FE7384608E73746E9E6704700BFA7
:1005A00084B080B582B000AF07F1100C8CE80F006A
:1005B000474B184607F1100154231A4623F05EF802
:1005C000434B882283F85620414B402283F8552024
:1005D0003F4BD62283F854203D4B002283F858200D
:1005E0003B4B002283F85920394B002283F85A20D4
:1005F00001220221374804F071F801220421354814
:1006000004F06CF801220821324804F067F8012256
:100610001021304804F062F8012220212D4804F016
:100620005DF8012240212B4804F058F800233B716B
:1006300000237B710023FB803B1D19462E2000F018
:10064000DDFA3A79224B93F855309A4239D17A79CA
:100650001F4B93F856309A4233D13023FB80FB88EE
:1006600019460C2000F0ECFA4023FB80FB88194669
:10067000042000F0E5FA3B1D1946042000F0BEFA04
:100680001823FB80FB8819460E2000F0D9FA3B1D89
:1006900019460E2000F0B2FA3B1D1946002000F06A
:1006A000ADFA40F60763FB80FB881946002000F096
:1006B000C7FA4FF6E073FB80FB8819463A2000F03A
:1006C000BFFA00BF0837BD46BDE8804004B07047A0
:1006D00044B302200010024080B582B000AF002376
:1006E000FB800023FB80FB881946022000F0A8FA5B
:1006F0003023FB80FB8819460C2000F0A1FA41232F
:10070000FB80FB881946042000F09AFA00233B7115
:1007100000237B7143F20273FB80FB881946322071
:1007200000F08EFA0223FB80FB881946022000F0BD
:1007300087FA3B1D1946022000F060FA3B1D19465E
:100740000E2000F05BFA3B1D1946042000F056FA1B
:10075000034B012283F8582000BF0837BD4680BDF7
:1007600044B3022080B582B000AF00233B71002368
:100770007B713B1D19462C2000F040FA7B791A460C
:10078000642303FB02F3C44A82FB03121A44D2110E
:10079000DB17D31ADAB2C14B83F8572000233B7121
:1007A00000237B713B1D1946202000F027FA7B793E
:1007B000DB09DAB2B94B83F859204FF40051B8483D
:1007C00003F074FF0346012B24D1B44B93F8583047
:1007D000002B0AD1B14B93F857304A2B05D8FFF7BD
:1007E0007BFFAE4B012283F85820AC4B93F8573077
:1007F0004A2B0FD9A94B93F85830012B0AD1042367
:10080000FB80FB881946022000F01AFAA34B002255
:1008100083F85820A14B93F85730272B04D89F4BCF
:10082000002283F85A203FE09C4B93F85730272B47
:1008300009D99A4B93F857303B2B04D8974B012298
:1008400083F85A2030E0954B93F857303B2B09D969
:10085000924B93F857304F2B04D8904B022283F8D9
:100860005A2021E08D4B93F857304F2B09D98B4BF1
:1008700093F857305E2B04D8884B032283F85A2014
:1008800012E0864B93F857305E2B09D9834B93F8CF
:100890005730632B04D8814B042283F85A2003E09D
:1008A0007E4B052283F85A207C4B93F85930012B5C
:1008B00040F0CE80794B93F85A30002B1DD1402167
:1008C000784803F024FF01222021764803F006FF38
:1008D00001221021734803F001FF01220821714811
:1008E00003F0FCFE012204216E4803F0F7FE012212
:1008F00002216C4803F0F2FE60E1684B93F85A3035
:10090000012B1DD100224021664803F0E7FE202183
:10091000644803F0FCFE01221021624803F0DEFE71
:10092000012208215F4803F0D9FE012204215D481D
:1009300003F0D4FE012202215A4803F0CFFE3DE12C
:10094000564B93F85A30022B1DD1002240215548B6
:1009500003F0C4FE00222021524803F0BFFE102104
:10096000504803F0D4FE012208214E4803F0B6FEA1
:10097000012204214B4803F0B1FE01220221494823
:1009800003F0ACFE1AE1454B93F85A30032B1DD10E
:1009900000224021434803F0A1FE002220214148CB
:1009A00003F09CFE002210213E4803F097FE082130
:1009B0003C4803F0ACFE012204213A4803F08EFECD
:1009C00001220221374803F089FEF7E0334B93F808
:1009D0005A30042B1DD100224021324803F07EFE04
:1009E000002220212F4803F079FE002210212D48FB
:1009F00003F074FE002208212A4803F06FFE042150
:100A0000284803F084FE01220221264803F066FEF6
:100A1000D4E000224021234803F060FE0022202180
:100A2000204803F05BFE002210211E4803F056FE12
:100A3000002208211B4803F051FE0022042119481E
:100A400003F04CFE01220221164803F047FEB5E0F8
:100A5000124B93F85A30002B26D100224021114826
:100A600003F03CFE012220210E4803F037FE012254
:100A700010210C4803F032FE01220821094803F03E
:100A80002DFE01220421074803F028FE0122022145
:100A9000044803F023FE91E08180808044B302206B
:100AA0000008024000100240464B93F85A30012BD8
:100AB0001ED100224021444803F010FE00222021D4
:100AC000414803F00BFE012210213F4803F006FECF
:100AD000012208213C4803F001FE012204213A488A
:100AE00003F0FCFD01220221374803F0F7FD65E029
:100AF000344B93F85A30022B1ED100224021324849
:100B000003F0ECFD002220212F4803F0E7FD002236
:100B100010212D4803F0E2FD012208212A4803F0AC
:100B2000DDFD01220421284803F0D8FD0122022125
:100B3000254803F0D3FD41E0224B93F85A30032BB4
:100B40001ED100224021204803F0C8FD00222021B0
:100B50001D4803F0C3FD002210211B4803F0BEFD19
:100B600000220821184803F0B9FD0122042116488B
:100B700003F0B4FD01220221134803F0AFFD1DE094
:100B800000224021104803F0A9FD002220210E4838
:100B900003F0A4FD002210210B4803F09FFD00226A
:100BA0000821094803F09AFD00220421064803F0B9
:100BB00095FD01220221044803F090FD00BF083793
:100BC000BD4680BD44B302200010024080B400AF97
:100BD000034B93F857301846BD465DF8047B7047C9
:100BE00044B3022080B400AF034B93F85930184649
:100BF000BD465DF8047B704744B3022080B584B0E5
:100C000002AF03463960FB710C4B93F8543099B234
:100C1000FA1D642300930123084803F0E3FE074B09
:100C200093F8543099B26423009302233A6803483E
:100C300003F0D6FF00BF0837BD4680BD44B3022095
:100C400080B586B002AF03460A46FB711346BB80EF
:100C5000FB793B73BB881B0A9BB2DBB27B73BB88FF
:100C6000DBB2BB73074B93F8543099B207F10C0217
:100C7000642300930323034803F0B4FE00BF10373E
:100C8000BD4680BD44B3022080B485B000AFF8609B
:100C9000B9607A60FB68074A1A60BB68064A1A6046
:100CA0007B6880221A6000BF1437BD465DF8047B64
:100CB000704700BF245902207859022080B400AF49
:100CC000154B164A1A60144B0A229A60124B2822BE
:100CD0005A60114B14225A630F4B1E225A620E4B5C
:100CE0007822DA600C4B41221A610B4B50229A6336
:100CF000094B5A229A62084B002283F85120064B76
:100D00001422DA64044B012283F8502000BFBD4650
:100D10005DF8047B704700BFA0B302200024F400FC
:100D200084B0B0B58CB00CAF07F1100484E80F00AC
:100D3000614B93F85030072B00F2B28001A252F8B9
:100D400023F000BF650D0008730D0008850D000835
:100D5000110E0008110E0008CF0D0008530E0008F8
:100D6000650D0008FFF7AAFF534B012283F85020BE
:100D70009BE04FF4FA7002F085FD4F4B022283F89E
:100D8000502092E06D4607F120040FCC0FC50FCC28
:100D90000FC594E80F0085E80F0007F110030FCB93
:100DA00000F08EF86D4607F160040FCC0FC50FCC34
:100DB0000FC594E80F0085E80F0007F150030FCB33
:100DC00000F0DEF83C4B032283F850206DE06D46C6
:100DD00007F120040FCC0FC50FCC0FC594E80F000E
:100DE00085E80F0007F110030FCB00F069F86D469E
:100DF00007F160040FCC0FC50FCC0FC594E80F00AE
:100E000085E80F0007F150030FCB00F0B9F84CE074
:100E10006D4607F120040FCC0FC50FCC0FC594E829
:100E20000F0085E80F0007F110030FCB00F08EF8DC
:100E30006D4607F160040FCC0FC50FCC0FC594E8C9
:100E40000F0085E80F0007F150030FCB00F098F872
:100E50002BE06D4607F120040FCC0FC50FCC0FC55A
:100E600094E80F0085E80F0007F110030FCB00F0A6
:100E700027F86D4607F160040FCC0FC50FCC0FC5E6
:100E800094E80F0085E80F0007F150030FCB00F046
:100E900077F800224FF40051084803F01FFC04E0EB
:100EA000054B072283F8502000BF00BFBD46BDE8B8
:100EB000B04004B0704700BFA0B30220000C024055
:100EC00084B080B483B000AF07F1100C8CE80F0041
:100ED0001D4B9A6B1C4B1B699A4219D31A4B9A6B88
:100EE000194BDB689A4213D8174B9B6B164A9362D7
:100EF000154B1A68144B9B6A642101FB03F3B2FB88
:100F0000F3F39BB2013B9BB27B603B697A689A62C8
:100F10000D4B5A6B0C4B9B689A420DD30A4B5A6B84
:100F2000094B5B689A4207D8074B5B6B064A5362D2
:100F30003B69054A526A5A6300BF0C37BD465DF8EB
:100F4000047B04B0704700BFA0B3022084B080B41B
:100F500083B000AF07F1100C8CE80F0077237B60A3
:100F60003B697A689A623B69044A526A9A6300BF95
:100F70000C37BD465DF8047B04B07047A0B3022077
:100F800084B080B582B000AF07F1100C8CE80F0080
:100F90001A4BDB6B642B2AD8184BDA6A174BDB6BC6
:100FA0009A4224D0154BDB6B144AD362134BDB6B94
:100FB000002B09D100224FF40051114803F08EFBA1
:100FC0000E4B00221A6312E00C4BDB6AFB71FB79BB
:100FD000C3F16403FB713B69FA79DA6301224FF4D0
:100FE0000051074803F07AFB044B01221A6300BF4B
:100FF0000837BD46BDE8804004B07047A0B302206A
:10100000000C024080B400AF0F4B93F85030052B1A
:1010100001D1022313E00C4B93F85030032B04D082
:10102000094B93F85030042B01D1012307E0064B04
:1010300093F85030062B01D1002300E0002318461E
:10104000BD465DF8047B7047A0B3022080B500AFB9
:1010500000F086F8024B0022DA6300BF80BD00BFBB
:10106000A0B3022080B500AF00F088F800BF80BDBB
:1010700080B500AF034B042283F8502000F07EF8C7
:1010800000BF80BDA0B3022080B500AF034B052296
:1010900083F8502000F072F800BF80BDA0B302209A
:1010A00080B483B000AF78607B68322B11D80C4AD3
:1010B0007B6853617A681346DB009B1ADB009B1A3E
:1010C000084AA2FB03231B094133054A936301230A
:1010D00000E0002318460C37BD465DF8047B7047DE
:1010E000A0B302201F85EB5180B483B000AF7860BD
:1010F0007B68322B11D80C4A7B6893617A6813465F
:101100001B019B1A5B001A46084BA3FB02231B0919
:101110000A33054A5363012300E0002318460C37C5
:10112000BD465DF8047B7047A0B302201F85EB51DC
:1011300080B582B000AF78607B68642B09D8074A1D
:101140007B68D361054A7B68D36300F009F801230B
:1011500000E0002318460837BD4680BDA0B302203A
:1011600080B400AF044BDB6B034A136200BFBD4683
:101170005DF8047B704700BFA0B3022080B400AFCD
:10118000044B1B6A034AD36300BFBD465DF8047B72
:10119000704700BFA0B3022080B400AF034B5B696F
:1011A0001846BD465DF8047B704700BFA0B302201F
:1011B00080B400AF034B9B691846BD465DF8047BC5
:1011C000704700BFA0B3022080B400AF034BDB69BF
:1011D0001846BD465DF8047B704700BFA0B30220EF
:1011E00080B584B000AF78607B681B681E4A93426C
:1011F00036D11E4B1B78002B0DD10023FB7307E06B
:10120000FB7B1A4A13440022DA70FB7B0133FB7329
:10121000FB7B632BF4D9154B5B780D2B12D0134B52
:101220005B780A2B0ED0114B1B7819460F4B5A785E
:101230000E4B0B44DA700D4B1B780133DAB20B4BBB
:101240001A7008E0094B00221A70084B012283F83B
:10125000352101F0E1FD01220549064807F0D0F9EA
:1012600000BF1037BD4680BD00100140ACB6022063
:10127000ADB602206CB6022080B582B000AF034646
:10128000FB80FB88B3F5006F01D101F02BFDFB88DB
:10129000B3F5005F09D14FF40051154803F006FA89
:1012A0000346012B01D1FFF717FAFB88B3F5804FF6
:1012B0001AD14FF480410F4803F0F8F90346002B90
:1012C00009D10D4B01221A80FFF7C0FE0B4B1B68A2
:1012D00000221A6408E0084B00221A80FFF7C2FEC1
:1012E000064B1B6864221A6400BF0837BD4680BDE8
:1012F00000080240000C0240785B022090B40220FB
:10130000F0B5ADB01CAF02F07BFA00F0D9F800F0F8
:1013100047FD00F071F900F021FA00F09FFA00F0AB
:10132000DDF900F00FFC00F053F900F063FC00F071
:10133000B1FB00F093F900F0B5FC00F0DDFC00F02B
:1013400005FD0AF0DBFAFFF7B9FC00214F4806F073
:1013500037FB08214E4806F033FB0C214D4806F0C0
:101360002FFB4B4B1B681422DA634A4B1B68642229
:101370001A64464B1B680A225A630122012146481F
:1013800003F0ACF900220221444803F0A7F900223F
:101390002021414803F0A2F9414C684604F11003B2
:1013A0004422194622F06AF994E80F0001F062FC29
:1013B00000224021394803F091F9012239493A4885
:1013C00007F01EF901F022FD384C684604F11003C5
:1013D0004422194622F052F994E80F00FFF7E0F892
:1013E000334B07F120041D460FCD0FC495E80700CD
:1013F00084E8070007F120030021184607F071FF79
:1014000002462C4B1A602C4B3C1D1D460FCD0FC4C1
:1014100095E8070084E807003B1D0021184607F007
:1014200060FF0246254B1A6007F054FF002387F83F
:101430003F30164E164B0CAC1D460FCD0FC40FCDD2
:101440000FC40FCD0FC495E80F0084E80F006D4660
:1014500006F110040FCC0FC50FCC0FC594E80F0098
:1014600085E80F0096E80F00FFF75AFC97F83F3029
:10147000013387F83F3097F83F300F2BD9D9FFF76A
:1014800071F9002387F83F30D3E700BF68B8022026
:101490002CB5022090B4022000000240000C024053
:1014A000FCB30220ADB602206CB60220D0B40220FC
:1014B00024490208F8B302204C490208F4B3022080
:1014C00080B5A0B000AF07F15003302200211846CC
:1014D00022F0DFF807F13C0300221A605A609A609C
:1014E000DA601A6107F10C0330220021184622F05D
:1014F000D0F8354B5B6823F03F03334A43F00803D1
:101500005360314B5B68304A23F4800353600023FF
:10151000BB602D4B1B6C2C4A43F0805313642A4B49
:101520001B6C03F08053BB60BB6800237B60274BC0
:101530001B6823F44043254A43F480431360234B44
:101540001B6803F440437B607B6802233B650123F7
:10155000FB6510233B660023BB660023FB6607F197
:101560005003184605F038F90346002B01D000F06F
:10157000B7FD0F23FB6300233B6400237B64002340
:10158000BB640023FB6407F13C030021184605F00F
:1015900093FB0346002B01D000F0A2FD0823FB6063
:1015A0003C23FB6105237B6200233B6307F10C03B3
:1015B000184605F07FFD0346002B01D000F090FD9A
:1015C00000BF8037BD4680BD00380240007000403B
:1015D00080B500AF064B074A1A60054802F086FA4C
:1015E0000346002B01D000F07BFD00BF80BD00BF93
:1015F00024B502200030024080B500AF154B164ADA
:101600001A60144B00225A60124B02229A60114B4E
:101610000022DA600F4B00229A620E4B0222DA623D
:101620000C4B00221A630B4B00225A63094802F04C
:101630009BFA0346002B01D000F052FD0121054822
:1016400002F05CFD0346002B01D000F049FD00BF15
:1016500080BD00BF28B8022000B0024080B500AFB6
:101660001B4B1C4A1A601A4B1B4A5A60184B00222B
:101670009A60174B0022DA60154B4FF480421A61D2
:10168000134B00225A61124B00229A61104B002228
:10169000DA610F4B00221A620D4803F06BF8034623
:1016A000002B01D000F01CFD0021094804F083FC50
:1016B0000346002B01D000F013FD0021044804F084
:1016C000B6FC0346002B01D000F00AFD00BF80BD30
:1016D000D0B4022000540040A086010080B500AFC5
:1016E0001B4B1C4A1A601A4B1B4A5A60184B0022AB
:1016F0009A60174B0022DA60154B4FF480421A6152
:10170000134B00225A61124B00229A61104B0022A7
:10171000DA610F4B00221A620D4803F02BF80346E2
:10172000002B01D000F0DCFC0021094804F043FC50
:101730000346002B01D000F0D3FC0021044804F044
:1017400076FC0346002B01D000F0CAFC00BF80BD30
:10175000FCB30220005C0040A086010080B58EB082
:1017600000AF3B1D34220021184621F092FF394B77
:10177000394A1A60374B00225A60364B00229A6071
:10178000344B0022DA60334B00221A61314B0922BC
:101790005A61304B01229A612E4B1322DA612D4B94
:1017A00003221A622B4B40F203125A62294B40F279
:1017B00043129A62274B40F21712DA62254B40F22D
:1017C00047121A63234B002283F83420214B002256
:1017D00083F835201F4B002283F836201D4804F083
:1017E00065FC0346002B01D000F07AFC00237B60EF
:1017F000F023BB600023FB604FF4A0733B61022326
:101800007B61FF23BB61FF23FB614FF480633B627D
:1018100005237B620023BB62F023FB624FF4A073BD
:101820003B63002387F83430002387F835300023EA
:1018300087F836303B1D00221946064804F0BEFDED
:101840000346002B01D000F04BFC00BF3837BD46EB
:1018500080BD00BFC4B502200068014080B500AF64
:101860008A4B8B4A1A60894B4FF482725A60874BBD
:101870004FF400429A60854B0022DA60834B0022CD
:101880001A61824B00225A61804B4FF400729A61B8
:101890007E4B0022DA617D4B00221A627B4B0022D4
:1018A0005A627A4B00229A62784B0A22DA627748AF
:1018B00005F0BEFD0346002B01D000F011FC102006
:1018C00000F06CFBC82001F0DDFF012000F066FB9A
:1018D000C82001F0D7FF112000F060FBC82001F004
:1018E000D1FF292000F05AFB362000F057FB54208E
:1018F00000F078FB3A2000F051FB052000F072FB6D
:10190000B02000F04BFB112000F06CFBC82000F071
:1019100069FBB12000F042FBC22000F063FBFF2016
:1019200000F060FBFF2000F05DFB0B2000F036FBB9
:10193000002000F057FB202000F030FB212000F0B9
:101940002DFBB22000F02AFB0C2000F04BFB0C20FA
:1019500000F048FB002000F045FB332000F042FB84
:10196000332000F03FFBB72000F018FB352000F0DB
:1019700039FBBB2000F012FB2B2000F033FBC02012
:1019800000F00CFB2C2000F02DFBC22000F006FB29
:10199000012000F027FBC32000F000FB172000F01F
:1019A00021FBC42000F0FAFA202000F01BFBC62027
:1019B00000F0F4FA0A2000F015FBD02000F0EEFA57
:1019C000A42000F00FFBA12000F00CFBE02000F0B1
:1019D000E5FAD02000F006FB0F2000F003FB1720F3
:1019E00000F000FB0D2000F0FDFA0E2000F0FAFAE6
:1019F000022000F0F7FA3D2000F0F4FA442000F055
:101A0000F1FA4E2000F0EEFA0C2000F0EBFA1B2069
:101A100000F0E8FA1B2000F0E5FA1C2000F0E2FAE2
:101A20001F2000F0DFFAE12000F0B8FAD02000F02B
:101A3000D9FA0F2000F0D6FA172000F0D3FA0D20C3
:101A400000F0D0FA0E2000F0CDFA022000F0CAFA21
:101A50003D2000F0C7FA442000F0C4FA4E2000F008
:101A6000C1FA0C2000F0BEFA1B2000F0BBFA1B20CC
:101A700000F0B8FA1C2000F0B5FA1F2000F0B2FA0E
:101A8000292000F08BFA00BF80BD00BF6CB502209A
:101A9000003C004080B58AB000AF07F1200300226F
:101AA0001A605A603B1D00221A605A609A60DA6020
:101AB0001A615A619A61224B4FF080421A60204BA2
:101AC00077225A601E4B00229A601D4B6422DA6016
:101AD0001B4B00221A611A4B00229A61184805F02C
:101AE00044FF0346002B01D000F0FAFA00233B62CA
:101AF00000237B6207F120031946114806F00AFC17
:101B00000346002B01D000F0EBFA60237B6000233A
:101B1000BB600023FB6000237B613B1D0022194654
:101B2000074806F093F80346002B01D000F0D8FADE
:101B3000034800F085FD00BF2837BD4680BD00BFCB
:101B400068B8022080B58AB000AF07F120030022F8
:101B50001A605A603B1D00221A605A609A60DA606F
:101B60001A615A619A61214B214A1A601F4B7722F0
:101B70005A601E4B00229A601C4B6422DA601B4B99
:101B800000221A61194B00229A61184805F0EDFEF7
:101B90000346002B01D000F0A3FA00233B62002390
:101BA0007B6207F120031946104806F0B3FB034699
:101BB000002B01D000F094FA60237B603223BB60DD
:101BC0000023FB6000237B613B1D08221946074868
:101BD00006F03CF80346002B01D000F081FA0348E0
:101BE00000F02EFD00BF2837BD4680BD2CB5022079
:101BF0000004004080B58AB000AF07F12003002246
:101C00001A605A603B1D00221A605A609A60DA60BE
:101C10001A615A619A61214B214A1A601F4B77223F
:101C20005A601E4B00229A601C4B6422DA601B4BE8
:101C300000221A61194B00229A61184805F095FE9E
:101C40000346002B01D000F04BFA00233B62002337
:101C50007B6207F120031946104806F05BFB034640
:101C6000002B01D000F03CFA60237B600023BB60B6
:101C70000023FB6000237B613B1D0C2219460748B3
:101C800005F0E4FF0346002B01D000F029FA0348D9
:101C900000F0D6FC00BF2837BD4680BD90B40220BE
:101CA0000008004080B500AF114B124A1A60104B7B
:101CB0004FF4E1325A600E4B00229A600C4B002226
:101CC000DA600B4B00221A61094B0C225A61084B57
:101CD00000229A61064B0022DA61054806F0AAFB51
:101CE0000346002B01D000F0FBF900BF80BD00BF10
:101CF000E8B70220004C004080B500AF114B124AFB
:101D00001A60104B4FF416525A600E4B00229A6024
:101D10000C4B0022DA600B4B00221A61094B0C229B
:101D20005A61084B00229A61064B0022DA6105488D
:101D300006F080FB0346002B01D000F0D1F900BF74
:101D400080BD00BF50B402200078004080B500AFD5
:101D5000114B124A1A60104B4FF416525A600E4B38
:101D600000229A600C4B0022DA600B4B00221A61B1
:101D7000094B0C225A61084B00229A61064B002243
:101D8000DA61054806F056FB0346002B01D000F04F
:101D9000A7F900BF80BD00BF6CB602200010014053
:101DA00080B58CB000AF07F11C0300221A605A60A6
:101DB0009A60DA601A610023BB61714B1B6B704A39
:101DC00043F0100313636E4B1B6B03F01003BB61F6
:101DD000BB6900237B616A4B1B6B694A43F00403B8
:101DE0001363674B1B6B03F004037B617B69002368
:101DF0003B61634B1B6B624A43F080031363604B90
:101E00001B6B03F080033B613B690023FB605C4B71
:101E10001B6B5B4A43F001031363594B1B6B03F0CD
:101E20000103FB60FB680023BB60554B1B6B544AEE
:101E300043F002031363524B1B6B03F00203BB60BE
:101E4000BB6800237B604E4B1B6B4D4A43F008037D
:101E500013634B4B1B6B03F008037B607B68002212
:101E60007E21484802F03AFC002248F22001464810
:101E700002F034FC00222021444802F02FFC002212
:101E800042F24321424802F029FC7E23FB610123F8
:101E90003B6200237B620023BB6207F11C031946EF
:101EA000384802F059FA4FF40053FB61394B3B625A
:101EB00000237B6207F11C031946334802F04CFAF9
:101EC0004FF48043FB6100233B6200237B6207F1F8
:101ED0001C0319462C4802F03FFA48F22003FB612C
:101EE00001233B6200237B620023BB6207F11C03DA
:101EF0001946254802F030FA2023FB6101233B629A
:101F000000237B620023BB6207F11C0319461F48B4
:101F100002F022FA42F24323FB6101233B620023D9
:101F20007B620023BB6207F11C031946184802F0CC
:101F300013FA4FF40063FB61164B3B6200237B6294
:101F400007F11C031946124802F006FA4FF48043C9
:101F5000FB61114B3B6200237B6207F11C031946B6
:101F60000B4802F0F9F900220521282001F086FD36
:101F7000282001F09FFD00BF3037BD4680BD00BF67
:101F800000380240001002400008024000000240F9
:101F9000000C0240000011100000311080B582B02A
:101FA00000AF0346FB71002220210B4802F096FB94
:101FB00000220121094802F091FBF91D0A230122A8
:101FC000074805F099FA01220121044802F086FB36
:101FD00000BF0837BD4680BD00080240000C02402B
:101FE0006CB5022080B582B000AF0346FB710122C0
:101FF00020210B4802F072FB00220121094802F067
:102000006DFBF91D0A230122074805F075FA01222C
:102010000121044802F062FB00BF0837BD4680BDC5
:1020200000080240000C02406CB50220F0B59FB0E1
:102030001CAF7860184E194B0CAC1D460FCD0FC469
:102040000FCD0FC40FCD0FC495E80F0084E80F002B
:102050006D4606F110040FCC0FC50FCC0FC594E8E8
:102060000F0085E80F0096E80F00FEF759FE0C4BB5
:102070001B8801339AB20A4B1A80094B1B88B3F5AF
:10208000FA7F04D9FEF76EFB054B00221A8001206F
:1020900007F073F9CEE700BF68B802202CB5022024
:1020A0007A5B022080B582B000AF786009F026FC30
:1020B00009F02AFC012007F060F9FBE780B582B047
:1020C00000AF78607B681B68044A934201D101F03D
:1020D000B9FB00BF0837BD4680BD00BF000001400E
:1020E00080B400AF00BFBD465DF8047B70470000C0
:1020F00080B582B000AF00237B60124B5B6C114A4D
:1021000043F4804353640F4B5B6C03F480437B6068
:102110007B6800233B600B4B1B6C0A4A43F08053E7
:102120001364084B1B6C03F080533B603B68002238
:102130000F216FF0010001F0A1FC00BF0837BD4680
:1021400080BD00BF0038024080B485B000AF786029
:102150007B681B680B4A93420DD10023FB600A4B3E
:102160001B6B094A43F480531363074B1B6B03F447
:102170008053FB60FB6800BF1437BD465DF8047BED
:10218000704700BF003002400038024080B584B084
:1021900000AF78607B681B680E4A934215D100231C
:1021A000FB600D4B1B6B0C4A43F4000313630A4B9B
:1021B0001B6B03F40003FB60FB68002205215A201F
:1021C00001F05CFC5A2001F075FC00BF1037BD46E1
:1021D00080BD00BF00B002400038024080B582B030
:1021E00000AF78607B681B68074A934208D1074BB1
:1021F0001B6B064A23F4000313635A2001F068FCAA
:1022000000BF0837BD4680BD00B002400038024024
:1022100080B58CB000AF786007F11C0300221A6013
:102220005A609A60DA601A617B681B68424A93427E
:102230002CD10023BB61414B1B6B404A43F002038E
:1022400013633E4B1B6B03F00203BB61BB69C023EE
:10225000FB6112233B6201237B620323BB620423E5
:10226000FB6207F11C031946354802F075F800239C
:102270007B61324B1B6C314A43F4001313642F4BC8
:102280001B6C03F400137B617B6950E07B681B6867
:102290002C4A93424BD100233B61284B1B6B274AAE
:1022A00043F004031363254B1B6B03F004033B61F2
:1022B0003B690023FB60214B1B6B204A43F0010369
:1022C00013631E4B1B6B03F00103FB60FB684FF4B1
:1022D0000073FB6112233B6201237B620323BB6219
:1022E0000423FB6207F11C031946174802F034F877
:1022F0004FF48073FB6112233B6201237B62032353
:10230000BB620423FB6207F11C0319460F4802F06D
:1023100023F80023BB60094B1B6C084A43F40003FD
:102320001364064B1B6C03F40003BB60BB6800BF67
:102330003037BD4680BD00BF005400400038024029
:1023400000040240005C004000080240000002401F
:1023500080B58EB000AF786007F1240300221A60C8
:102360005A609A60DA601A617B681B68634A93421C
:1023700040F0C08000233B62614B5B6C604A43F0DD
:10238000806353645E4B5B6C03F080633B623B6A2B
:102390000023FB615A4B1B6B594A43F00103136343
:1023A000574B1B6B03F00103FB61FB690023BB610F
:1023B000534B1B6B524A43F002031363504B1B6B8E
:1023C00003F00203BB61BB6900237B614C4B1B6BB9
:1023D0004B4A43F010031363494B1B6B03F010038C
:1023E0007B617B6900233B61454B1B6B444A43F097
:1023F00008031363424B1B6B03F008033B613B690B
:102400000023FB603E4B1B6B3D4A43F00403136308
:102410003B4B1B6B03F00403FB60FB6841F6580366
:102420007B620223BB620023FB6200233B630E231B
:102430007B6307F124031946324801F08DFF032323
:102440007B620223BB620023FB6200233B63092300
:102450007B6307F1240319462B4801F07DFF4FF4FD
:1024600078437B620223BB620023FB6200233B6351
:102470000E237B6307F124031946244801F06CFF07
:102480004FF470637B620223BB620023FB62002374
:102490003B630E237B6307F1240319461A4801F0BE
:1024A0005BFF4FF481637B620223BB620023FB620C
:1024B00000233B630E237B6307F124031946144872
:1024C00001F04AFFC0237B620223BB620023FB6250
:1024D00000233B630E237B6307F1240319460D4859
:1024E00001F03AFF00220521582001F0C7FA5820D8
:1024F00001F0E0FA00BF3837BD4680BD00680140FA
:102500000038024000000240000402400010024077
:10251000000C02400008024080B58AB000AF78602D
:1025200007F1140300221A605A609A60DA601A6197
:102530007B681B68194A93422CD100233B61184BDE
:102540001B6C174A43F400431364154B1B6C03F4D4
:1025500000433B613B690023FB60114B1B6B104A3E
:1025600043F0040313630E4B1B6B03F00403FB6087
:10257000FB684FF4A0537B610223BB610023FB6126
:1025800003233B6206237B6207F1140319460548C7
:1025900001F0E2FE00BF2837BD4680BD003C004090
:1025A000003802400008024080B487B000AF786075
:1025B0007B681B68B3F1804F0ED100237B611D4BFC
:1025C0001B6C1C4A43F0010313641A4B1B6C03F091
:1025D00001037B617B6926E07B681B68164A934296
:1025E0000ED100233B61134B1B6C124A43F00203D4
:1025F0001364104B1B6C03F002033B613B6912E058
:102600007B681B680D4A93420DD10023FB60094B88
:102610001B6C084A43F004031364064B1B6C03F065
:102620000403FB60FB6800BF1C37BD465DF8047BFC
:10263000704700BF0038024000040040000800401E
:1026400080B58AB000AF786007F1140300221A60E9
:102650005A609A60DA601A617B681B68B3F1804F38
:102660001FD100233B61354B1B6B344A43F0010300
:102670001363324B1B6B03F001033B613B694FF467
:1026800000437B610223BB610023FB6100233B62AB
:1026900001237B6207F114031946294801F05CFE0F
:1026A00048E07B681B68274A93421FD10023FB60E8
:1026B000224B1B6B214A43F0040313631F4B1B6B1C
:1026C00003F00403FB60FB684FF480737B6102231B
:1026D000BB610023FB6100233B6202237B6207F1A5
:1026E00014031946184801F037FE23E07B681B6885
:1026F000164A93421ED10023BB60104B1B6B0F4A3E
:1027000043F0080313630D4B1B6B03F00803BB601E
:10271000BB684FF400437B610223BB610023FB6174
:1027200000233B6202237B6207F114031946084829
:1027300001F012FE00BF2837BD4680BD00380240C0
:102740000000024000040040000802400008004071
:10275000000C024080B58EB000AF786007F1240312
:1027600000221A605A609A60DA601A617B681B68FE
:10277000544A93422CD100233B62534B1B6C524A68
:1027800043F400231364504B1B6C03F400233B629F
:102790003B6A0023FB614C4B1B6B4B4A43F001032C
:1027A0001363494B1B6B03F00103FB61FB690323BC
:1027B0007B620223BB620123FB6203233B6308238A
:1027C0007B6307F124031946404801F0C5FD74E01E
:1027D0007B681B683E4A934235D10023BB613A4B6C
:1027E0001B6C394A43F080431364374B1B6C03F076
:1027F0008043BB61BB6900237B61334B1B6B324A57
:1028000043F010031363304B1B6B03F010037B6129
:102810007B694FF4C0737B620223BB620123FB62BE
:1028200003233B6308237B6307F1240319462948EC
:1028300001F092FD00220521522001F01FF95220E3
:1028400001F038F939E07B681B68234A934234D1A0
:1028500000233B611C4B5B6C1B4A43F01003536429
:10286000194B5B6C03F010033B613B690023FB6079
:10287000154B1B6B144A43F001031363124B1B6B84
:1028800003F00103FB60FB684FF4C0637B6202232B
:10289000BB620023FB6203233B6307237B6307F1D7
:1028A00024031946094801F057FD0022052125207F
:1028B00001F0E4F8252001F0FDF800BF3837BD46EF
:1028C00080BD00BF004C00400038024000000240C4
:1028D00000780040001002400010014080B58CB02C
:1028E00000AF78600023FB620023BB62002279689E
:1028F000192001F0C3F8192001F0DCF80023FB6077
:102900001E4B5B6C1D4A43F0010353641B4B5B6C15
:1029100003F00103FB60FB6807F1100207F11403E9
:102920001146184604F094FB04F07EFBF862FB6A43
:10293000134AA2FB03239B0C013BBB62114B124ABF
:102940001A60104B40F2E732DA600E4ABB6A5360FD
:102950000C4B00221A610B4B00229A60094804F0CC
:10296000ABFF0346002B04D1064804F0DAFF034610
:1029700000E0012318463037BD4680BD00380240D4
:1029800083DE1B43A8B802200000014080B400AFE2
:1029900000BFBD465DF8047B704780B400AFFEE722
:1029A00080B400AFFEE780B400AFFEE780B400AFB4
:1029B000FEE780B400AF00BFBD465DF8047B704702
:1029C00080B500AF024805F039F800BF80BD00BFF8
:1029D000A8B8022080B500AF024805F067FE00BF2E
:1029E00080BD00BF6CB6022080B500AF4FF4006020
:1029F00001F0A8FE4FF4005001F0A4FE4FF4804017
:102A000001F0A0FE00BF80BD80B500AF024805F018
:102A10004DFE00BF80BD00BF50B4022080B500AFA6
:102A2000024803F013FC00BF80BD00BFC4B5022004
:102A300080B500AF024801F050FA00BF80BD00BF72
:102A400028B8022080B400AF01231846BD465DF8C7
:102A5000047B704780B582B000AF7860396020F0A9
:102A6000C1FD0246162313604FF0FF3318460837A6
:102A7000BD4680BD80B582B000AF78604FF0FF31B9
:102A80007868FFF7E7FFFEE780B586B000AFF86033
:102A9000B9607A6000237B610AE0AFF300800146F1
:102AA000BB685A1CBA60CAB21A707B6901337B6179
:102AB0007A697B689A42F0DB7B6818461837BD4616
:102AC00080BD80B586B000AFF860B9607A60002341
:102AD0007B6109E0BB685A1CBA601B781846AFF3EB
:102AE00000807B6901337B617A697B689A42F1DB04
:102AF0007B6818461837BD4680BD80B483B000AFF0
:102B000078604FF0FF3318460C37BD465DF8047B04
:102B1000704780B483B000AF786039603B684FF491
:102B200000525A60002318460C37BD465DF8047BFE
:102B3000704780B483B000AF7860012318460C372B
:102B4000BD465DF8047B704780B485B000AFF86087
:102B5000B9607A60002318461437BD465DF8047BDF
:102B60007047000080B584B000AF7860114B1B68DF
:102B7000002B02D10F4B104A1A600E4B1B68FB60F2
:102B80000C4B1A687B6813446A46934207D920F0BD
:102B900029FD02460C2313604FF0FF3306E0054B7E
:102BA0001A687B681344034A1360FB6818461037A1
:102BB000BD4680BD7C5B022050B9022080B400AFCE
:102BC000084BD3F88830074A43F47003C2F88830C2
:102BD000044B4FF000629A6000BFBD465DF8047B75
:102BE000704700BF00ED00E080B588B004AF034639
:102BF0003960FB711346BB710023FB730B4BB3F8B9
:102C00005410FB7998B2BB799BB264220292019373
:102C10003B68009301230246044802F001FB03468F
:102C2000FB7300BF1037BD4680BD00BFE8B802206F
:102C300080B588B004AF03460A46FB711346BB71EA
:102C40000023FB730A4BB3F85410FB799AB2642348
:102C5000029301230193BB1D00930123044802F05A
:102C6000E5F90346FB7300BF1037BD4680BD00BFCA
:102C7000E8B8022084B080B500AF07F1080C8CE8FA
:102C80000F0001224FF40071144801F027FD144B8E
:102C90007022A3F85420124B184607F10801542360
:102CA0001A4620F0EBFC0E4B002283F857200C4B09
:102CB0000022A3F858200A4B0022A3F85A20002132
:102CC0000020FFF7B5FF0021A420FFF7B1FF00BFF0
:102CD000BD46BDE8804004B0704700BF000C024014
:102CE000E8B8022080B582B000AF3B1D00210A4643
:102CF0001A800A469A700023FB713B1D0222194676
:102D00000320FFF771FF3B799B09FB71FB79022BD5
:102D100033D11E4B012283F857203B7903F0070380
:102D2000DBB23B713B791B021AB27B791BB21343B6
:102D30001BB29BB2C3F1F0039AB2144BA3F8582014
:102D40003B1D022219460520FFF74EFF3B7903F099
:102D50000703DBB23B713B791B021BB203F4E06358
:102D60001AB27B791BB213431BB29BB2C3F5A0739B
:102D70009AB2064BA3F85A2003E0044B002283F8D2
:102D8000572000BF0837BD4680BD00BFE8B802200D
:102D900080B400AF034B93F857301846BD465DF83A
:102DA000047B7047E8B8022080B400AF034BB3F84F
:102DB00058301846BD465DF8047B7047E8B80220DD
:102DC00080B400AF034BB3F85A301846BD465DF8E7
:102DD000047B7047E8B8022080B582B000AF78600D
:102DE000FFF7D6FF03469AB27B681A80FFF7DCFF35
:102DF00003461A467B685A80FFF7E2FF03461A46ED
:102E00007B689A8000BF0837BD4680BD80B500AFA3
:102E100000F08EFA00BF80BD80B582B000AF904B4D
:102E200093F83531002B00F07C828D4BDB78732BCF
:102E300029D18B4B1B79702B25D1894B5B79652B65
:102E400021D1874B9B79652B1DD1854BDB79642B79
:102E500019D1834B1B7A1A46920013445B00DAB2F5
:102E60007F4B5B7A1344DBB2103BFB71FB79322B57
:102E700006D8FB791846FEF713F900F0E5FB4CE2A3
:102E800000F004FC49E2764BDB78732B35D1744BB0
:102E90001B79742B31D1724B5B79722B2DD1704B16
:102EA0009B79652B29D16E4BDB796E2B25D16C4B31
:102EB0001B7A672B21D16A4B5B7A742B1DD1684B2F
:102EC0009B7A682B19D1664BDB7A1A469200134421
:102ED0005B00DAB2624B1B7B1344DBB2103BBB716D
:102EE000BB79322B06D8BB791846FEF7FDF800F007
:102EF000ABFB12E200F0CAFB0FE2594BDB786C2B04
:102F00002FD1574B1B79752B2BD1554B5B796D2BE3
:102F100027D1534B9B791A46920013441A469100CD
:102F20001A460B4613449B00DAB24D4BDB79194627
:102F300089000B445B00DBB21344DAB2484B1B7AC6
:102F40001344DBB230337B717B79642B06D87B79F9
:102F50001846FEF7EDF800F077FBDEE100F096FB97
:102F6000DBE13F4BDB78722B1CD13D4B1B79652B92
:102F700018D13B4B5B79612B14D1394B9B79642B76
:102F800010D1374BDB79692B0CD1354B1B7A6E2B6B
:102F900008D1334B5B7A672B04D1FEF775F800F04C
:102FA00053FBBAE12E4BDB786E2B18D12C4B1B79DF
:102FB0006F2B14D12A4B5B79722B10D1284B9B7944
:102FC0006D2B0CD1264BDB79612B08D1244B1B7A5E
:102FD0006C2B04D1FEF74CF800F036FB9DE1204B42
:102FE000DB786F2B0CD11E4B1B79662B08D11C4B49
:102FF0005B79662B04D1FEF729F800F025FB8CE104
:10300000174BDB78732B2DD1154B1B79742B29D1E2
:10301000134B5B79612B25D1114B9B79742B21D1FB
:103020000F4BDB79652B1DD10D4B1B7A5F2B19D113
:103030000B4B5B7A732B15D1094B9B7A702B11D1FB
:10304000074BDB7A652B0DD1054B1B7B652B09D11B
:10305000034B5B7B642B05D100F07CF95DE100BF85
:10306000ACB60220834BDB78732B36D1814B1B79B6
:10307000742B32D17F4B5B79612B2ED17D4B9B79A9
:10308000742B2AD17B4BDB79652B26D1794B1B7AAC
:103090005F2B22D1774B5B7A732B1ED1754B9B7ABA
:1030A000742B1AD1734BDB7A722B16D1714B1B7BAD
:1030B000652B12D16F4B5B7B6E2B0ED16D4B9B7BC7
:1030C000672B0AD16B4BDB7B742B06D1694B1B7CC6
:1030D000682B02D100F070F91FE1664BDB78732B8F
:1030E00022D1644B1B79742B1ED1624B5B79612B0F
:1030F0001AD1604B9B79742B16D15E4BDB79652B13
:1031000012D15C4B1B7A5F2B0ED15A4B5B7A6C2B26
:103110000AD1584B9B7A752B06D1564BDB7A6D2B17
:1031200002D100F07BF9F8E0524BDB78732B2ED103
:10313000504B1B79742B2AD14E4B5B79612B26D1D6
:103140004C4B9B79742B22D14A4BDB79652B1ED1DA
:10315000484B1B7A5F2B1AD1464B5B7A622B16D1F8
:10316000444B9B7A612B12D1424BDB7A742B0ED1EC
:10317000404B1B7B652B0AD13E4B5B7B722B06D1F0
:103180003C4B9B7B792B02D100F08EF9C5E0394B8B
:10319000DB78732B2ED1374B1B79742B2AD1354B0F
:1031A0005B79612B26D1334B9B79742B22D1314B28
:1031B000DB79652B1ED12F4B1B7A5F2B1AD12D4B40
:1031C0005B7A632B16D12B4B9B7A682B12D1294B40
:1031D000DB7A612B0ED1274B1B7B722B0AD1254B3F
:1031E0005B7B672B06D1234B9B7B652B02D100F0C9
:1031F0006FFA92E01F4BDB78732B3DD11D4B1B798F
:10320000742B39D11B4B5B79612B35D1194B9B79D1
:10321000742B31D1174BDB79652B2DD1154B1B7AD4
:103220005F2B29D1134B5B7A6D2B25D1114B9B7AE8
:103230006F2B21D10F4BDB7A642B1DD10D4B1B7BE8
:10324000652B19D1FDF7C0FF03463B71FDF7DAFE90
:103250000346FB703B79002B02D100F0AFF95CE034
:10326000FB78022B02D100F063F956E000F084F9FC
:1032700053E000BFACB602202C4BDB78732B2ED171
:103280002A4B1B79742B2AD1284B5B79612B26D1D1
:10329000264B9B79742B22D1244BDB79652B1ED1D5
:1032A000224B1B7A5F2B1AD1204B5B7A732B16D1E2
:1032B0001E4B9B7A632B12D11C4BDB7A722B0ED1E7
:1032C0001A4B1B7B652B0AD1184B5B7B652B06D1F8
:1032D000164B9B7B6E2B02D100F094F91DE0134B33
:1032E000DB78762B19D1114B1B79652B15D10F4B40
:1032F0005B79722B11D10D4B9B79732B0DD10B4B3D
:10330000DB79692B09D1094B1B7A6F2B05D1074B50
:103310005B7A6E2B01D100F00DFA044B002283F88A
:10332000352100BF0837BD4680BD00BFACB60220C6
:1033300080B400AF064B0B2283F83621044B0022E9
:1033400083F8372100BFBD465DF8047B704700BF9E
:10335000ACB6022080B582B000AF00F00BFAFDF7EA
:103360001BFF0346FB71FB79092B06D8FB791A4634
:103370000D490E4820F05AFD05E0FB791A460C492C
:103380000A4820F053FD0948FCF732FF0346BB71A1
:10339000BB799AB264230549064805F098F800BF46
:1033A0000837BD4680BD00BF68490208AFB702209C
:1033B000744902086CB6022080B582B000AF00F0FC
:1033C000D9F9FDF7F5FE0346FB71FB79092B06D809
:1033D000FB791A460D490E4820F028FD05E0FB79DF
:1033E0001A460C490A4820F021FD0948FCF700FF65
:1033F0000346BB71BB799AB264230549064805F0C0
:1034000066F800BF0837BD4680BD00BF804902088E
:10341000AFB70220904902086CB6022080B582B096
:1034200000AF00F0A7F9FDF7CFFE0346FB71FB7973
:10343000002B09D0FB79092B06D8FB791A461549D0
:10344000154820F0F3FC15E0FB79632B09D8FB79D4
:10345000092B06D9FB791A4610490F4820F0E6FCE3
:1034600008E0FB79642B05D1FB791A460C490A4820
:1034700020F0DCFC0848FCF7BBFE0346BB71BB79BF
:103480009AB264230449074805F021F800BF0837C1
:10349000BD4680BD9C490208AFB70220A84902087A
:1034A000B04902086CB6022080B582B000AF00F0CF
:1034B00061F9FDF78BFB0346FB71FB79092B06D8FD
:1034C000FB791A461549164820F0B0FC15E0FB7947
:1034D000632B09D8FB79092B06D9FB791A461149C8
:1034E0000F4820F0A3FC08E0FB79642B05D1FB79A1
:1034F0001A460D490A4820F099FC0948FCF778FE65
:103500000346BB71BB799AB264230549074804F0AE
:10351000DEFF00BF0837BD4680BD00BFB8490208C6
:10352000AFB70220C4490208D04902086CB6022095
:1035300080B582B000AF00F01DF90C4A0C4B03CBF4
:103540001060516019889B78118193720748FCF7CD
:103550004FFE0346FB71FB799AB264230349054889
:1035600004F0B5FF00BF0837BD4680BDAFB70220ED
:10357000DC4902086CB6022080B582B000AF00F0D2
:10358000F9F80B4A0B4B03CB106051601B88138179
:103590000748FCF72DFE0346FB71FB799AB26423C2
:1035A0000349054804F093FF00BF0837BD4680BDBE
:1035B000AFB70220E84902086CB6022080B582B09D
:1035C00000AF00F0D7F80C4B0C4A106818609188D7
:1035D000927999809A710848FCF70AFE0346FB71BC
:1035E000FB799AB264230449054804F070FF00BFD8
:1035F0000837BD4680BD00BFAFB70220F4490208BE
:103600006CB6022080B582B000AF00F0B3F80B4A70
:103610000B4B03CB106051601B7813720748FCF70B
:10362000E7FD0346FB71FB799AB264230349054821
:1036300004F04DFF00BF0837BD4680BDAFB7022084
:10364000FC4902086CB6022080B582B000AF00F0E1
:1036500091F80B4B0B4A1068186012791A710848E0
:10366000FCF7C6FD0346FB71FB799AB2642304495B
:10367000054804F02CFF00BF0837BD4680BD00BFE1
:10368000AFB70220144A02086CB6022080B582B09F
:1036900000AF00F06FF80B4B0B4A1068186092886F
:1036A0009A800848FCF7A4FD0346FB71FB799AB2A7
:1036B00064230449054804F00AFF00BF0837BD46EB
:1036C00080BD00BFAFB702201C4A02086CB60220C2
:1036D00080B582B000AF00F04DF8FDF783FA0346E5
:1036E000FB71FB79012B06D10E4B0F4A1068186055
:1036F00012791A7105E00B4B0C4A10681860928819
:103700009A800848FCF774FD0346BB71BB799AB2F6
:1037100064230449064804F0DAFE00BF0837BD46BA
:1037200080BD00BFAFB70220144A02081C4A02083D
:103730006CB6022080B582B000AF00F01BF80A4AD8
:103740000A4B03CB106051600748FCF751FD03465C
:10375000FB71FB799AB264230349054804F0B7FE74
:1037600000BF0837BD4680BDAFB702202C4A020813
:103770006CB6022080B483B000AF0023FB7100233D
:10378000FB7108E0FB79084A1344002283F8032107
:10379000FB790133FB71FB79312BF3D900BF0C3777
:1037A000BD465DF8047B7047ACB60220DFF834D02C
:1037B000002103E00C4B5B58435004310B480C4B89
:1037C00042189A42F6D30B4A02E0002342F8043B27
:1037D000094B9A42F9D3FFF7F1F91FF01BFFFDF7F0
:1037E0008FFD704700000320F872120800000020CF
:1037F00008010020085902204CB90220FEE7000011
:1038000080B500AF0E4B1B680D4A43F40073136084
:103810000B4B1B680A4A43F480631360084B1B6818
:10382000074A43F480731360032000F01CF9002062
:10383000FFF754F8FEF75CFC0023184680BD00BF7C
:10384000003C024080B400AF064B1B781A46064B82
:103850001B681344044A136000BFBD465DF8047B37
:10386000704700BF0C00002044B9022080B400AFB4
:10387000034B1B681846BD465DF8047B704700BFCC
:1038800044B9022080B584B000AF7860FFF7EEFF46
:10389000B8607B68FB60FB68B3F1FF3F05D0094B64
:1038A0001B781A46FB681344FB6000BFFFF7DEFF7E
:1038B0000246BB68D31AFA689A42F7D800BF10379D
:1038C000BD4680BD0C00002080B485B000AF78609C
:1038D0007B6803F00703FB600C4BDB68BB60BA68D6
:1038E0004FF6FF031340BB60FB681A02BB6813432B
:1038F00043F0BF6343F40033BB60044ABB68D3604A
:1039000000BF1437BD465DF8047B704700ED00E052
:1039100080B400AF044BDB681B0A03F007031846B2
:10392000BD465DF8047B704700ED00E080B483B0D5
:1039300000AF0346FB7197F90730002B0BDBFB79D7
:1039400003F01F02074997F907305B09012000FACD
:1039500002F241F8232000BF0C37BD465DF8047B1E
:10396000704700BF00E100E080B483B000AF0346C1
:10397000FB7197F90730002B10DBFB7903F01F0276
:10398000094997F907305B09012000FA02F2203358
:1039900041F82320BFF34F8FBFF36F8F00BF0C3769
:1039A000BD465DF8047B704700E100E080B483B061
:1039B00000AF03463960FB7197F90730002B0ADB33
:1039C0003B68DAB20C4997F907301201D2B20B44C6
:1039D00083F800230AE03B68DAB20849FB7903F078
:1039E0000F03043B1201D2B20B441A7600BF0C370E
:1039F000BD465DF8047B704700E100E000ED00E0AB
:103A000080B489B000AFF860B9607A60FB6803F0F9
:103A10000703FB61FB69C3F10703042B28BF0423E1
:103A2000BB61FB690433062B02D9FB69033B00E051
:103A300000237B614FF0FF32BB6902FA03F3DA43E4
:103A4000BB681A407B699A404FF0FF317B6901FAED
:103A500003F3D9437B680B40134318462437BD4614
:103A60005DF8047B704780B582B000AF78607868FD
:103A7000FFF72AFF00BF0837BD4680BD80B586B07E
:103A800000AF0346B9607A60FB7300237B61FFF7E8
:103A90003FFF78617A68B9687869FFF7B1FF02463D
:103AA00097F90F3011461846FFF780FF00BF18370F
:103AB000BD4680BD80B582B000AF0346FB7197F96B
:103AC00007301846FFF732FF00BF0837BD4680BDFC
:103AD00080B582B000AF0346FB7197F907301846F6
:103AE000FFF742FF00BF0837BD4680BD80B582B0FA
:103AF00000AF78607B68002B01D101230EE07B686A
:103B00005B79DBB2002B05D17B6800221A717868E3
:103B1000FEF71AFB7B6801225A710023184608370A
:103B2000BD4680BD80B483B000AF78607B6893F8F9
:103B30003530DBB2022B04D07B6880225A6501232A
:103B40000CE07B68052283F835207B681B681A68C7
:103B50007B681B6822F001021A60002318460C37AC
:103B6000BD465DF8047B704780B582B000AF7860D9
:103B70007B68002B01D101233BE07B6893F839304F
:103B8000DBB2002B06D17B68002283F838207868EE
:103B9000FEF7FCFA7B68022283F839207B681B68F9
:103BA0001B6823F440317B685A687B681B680A43B2
:103BB0001A607B681B685B6B23F007017B689A685F
:103BC0007B681B680A435A637B681B681B6C23F481
:103BD0007F5323F03F037A68D1687A6812680B43F9
:103BE00013647B680022DA637B68012283F8392042
:103BF000002318460837BD4680BD000080B582B05E
:103C000000AF78607B68002B01D101235FE0324B6D
:103C10001B6B03F40003002B2ED07B681B681B6812
:103C200003F00103012B07D1786800F0C1F80346C7
:103C3000002B21D001234AE07B681B685B6A03F0FC
:103C40002003202B08D10021786800F0F7F8034604
:103C5000002B11D001233AE07B681B68DB6903F07D
:103C60002003202B08D10121786800F0E7F80346F3
:103C7000002B01D001232AE07B681B6800221A6018
:103C80007B681B683F229A607B681B6800221A6170
:103C90007B681B6800229A617B681B680022DA61DE
:103CA0007B681B6800225A627B681B6800225A638B
:103CB0007868FEF793FA7B680022DA637B6800225B
:103CC00083F839207B68002283F8382000231846C7
:103CD0000837BD4680BD00BF0038024080B586B0C1
:103CE00002AFF860B9607A603B60FB6893F83830E7
:103CF000012B01D1022320E0FB68012283F8382048
:103D0000FB68022283F83920BB6900933B687A681C
:103D1000B968F86800F084FAFB681B681A68FB68E9
:103D20001B6842F40C521A60FB681B681A68FB6837
:103D30001B6842F001021A60002318461037BD4686
:103D400080BD80B586B002AFF860B9607A603B6034
:103D5000FB6893F83830012B01D1022324E0FB6883
:103D6000012283F83820FB68022283F83920FB689F
:103D70001B687A685A61FB690093BB693A68B96845
:103D8000F86800F04DFAFB681B681A68FB681B684E
:103D900042F40C521A60FB681B681A68FB681B68C7
:103DA00042F001021A60002318461037BD4680BD5C
:103DB00080B584B000AF78607B681B681B6823F017
:103DC00005027B681B6842F004021A60FFF74EFD93
:103DD000F86017E0FFF74AFD0246FB68D31AB3F517
:103DE0007A7F0FD97B68DB6B43F020027B68DA6354
:103DF0007B68032283F839207B68002283F838200F
:103E0000032317E07B681B681B6803F00103002B8A
:103E1000E0D17B681B681A687B681B6822F40C522F
:103E20001A607B68012283F839207B68002283F8BE
:103E30003820002318461037BD4680BD80B584B0B9
:103E400000AF786039607B681B682433FB607B6857
:103E50001B681A687B681B6842F004021A603B68A2
:103E6000012B03D17B681B681C33FB60FFF7FEFC52
:103E7000B86017E0FFF7FAFC0246BB68D31AB3F547
:103E80007A7F0FD97B68DB6B43F020027B68DA63B3
:103E90007B68032283F839207B68002283F838206E
:103EA000032316E0FB681B6803F02003002BE1D11D
:103EB0007B681B681A687B681B6822F464521A606E
:103EC0007B68012283F839207B68002283F8382040
:103ED000002318461037BD4680BD80B584B000AFC2
:103EE00078607B681B685B68FB607B681B681B688D
:103EF000BB60FB6803F00103002B26D0BB6803F412
:103F00008073002B21D07B681B681A687B681B6854
:103F100022F480721A607B68DB6B43F001027B68DD
:103F2000DA637B681B6801229A607B68042283F84D
:103F300039207B68002283F838207B685B69002B7E
:103F400003D07B685B6978689847FB6803F02003BF
:103F5000002B26D0BB6803F40053002B21D07B68D4
:103F60001B681A687B681B6822F400521A607B6821
:103F70001B6820229A607B68DB6B43F002027B683F
:103F8000DA637B68042283F839207B68002283F897
:103F900038207B685B69002B03D07B685B6978689D
:103FA0009847FB6803F00803002B26D0BB6803F496
:103FB0000063002B21D07B681B681A687B681B6834
:103FC00022F400621A607B681B6808229A607B6892
:103FD000DB6B43F004027B68DA637B68042283F8BE
:103FE00039207B68002283F838207B685B69002BCE
:103FF00003D07B685B6978689847FB6803F004032B
:10400000002B13D0BB6803F48063002B0ED07B68B9
:104010001B681A687B681B6822F480621A607B68E0
:104020001B6804229A60786800F053F8FB6803F07C
:104030000203002B24D0BB6803F40073002B1FD0B5
:104040007B681B681A687B681B6822F400721A6020
:104050007B681B6802229A607B68DA6B7B68DA6394
:104060007B68012283F839207B68002283F838209E
:104070007B681B69002B03D07B681B6978689847B5
:10408000FB6803F01003002B1FD0BB6803F48053C0
:10409000002B1AD07B681B681A687B681B6822F4A7
:1040A00080521A607B681B6810229A607B68DA6B0A
:1040B0007B68DA637B68012283F839207B68002201
:1040C00083F83820786800F00EF800BF1037BD463E
:1040D00080BD80B483B000AF786000BF0C37BD46B0
:1040E0005DF8047B704780B483B000AF786000BF98
:1040F0000C37BD465DF8047B7047000080B487B084
:1041000000AF786039607B685B68B3F5403F7B68DF
:1041100093F83830012B01D1022379E07B6801222A
:1041200083F838207B68022283F839203B681B0122
:1041300018337A6813443B613B695A683B699B6852
:104140001B0413437B61354BFB603B695B680A2BA7
:1041500003D03B695B68092B07D13B69DB6803F03F
:104160007F437A6913437B6105E03B69DB681B068B
:104170007A6913437B613B68002B20D17B681B6805
:104180005A6AFB68DB4302EA03017B681B687A69B1
:104190000A435A627B681B683A6912689A613B69F4
:1041A0005B680A2B03D03B695B68092B27D13B690D
:1041B000DA687B681B6822F07F429A621FE07B68A6
:1041C0001B68DA69FB68DB4302EA03017B681B6852
:1041D0007A690A43DA617B681B683A6912681A6176
:1041E0003B695B680A2B03D03B695B68092B06D1EE
:1041F0003B69DA687B681B6822F07F421A627B6841
:10420000012283F839207B68002283F838200023BC
:1042100018461C37BD465DF8047B70470F0003FF4E
:1042200080B48BB000AFF860B9607A603B60FB6827
:104230001B685B6C03F040413B681A043B6B1A43FC
:10424000FB681B680A435A64FB681B687A68DA6378
:10425000FB685B68B3F5403F74D1BB6803F07F43F4
:104260003B62BB6803F47F03FB61BB6803F47F43DD
:10427000BB61BB68DBB27B61FB689B68002B08D12C
:10428000BA69FB691A433B6A13437A6913437B6239
:1042900053E0FB689B68012B06D1BA69FB691343A5
:1042A0007A6913437B6248E0FB689B68022B11D15B
:1042B000FB69DB0CFB61BB699B0ABB617B69DB08AB
:1042C0007B61BB695A01FB69DB0213437A691343C3
:1042D0007B6232E0FB689B68032B17D13B6ADB0FE4
:1042E0003B62FB69DB0CFB61BB69DB0ABB617B6981
:1042F000DB087B61BB695A01FB699B021A433B6A7D
:10430000DB0313437A6913437B6216E03B6A1B0F9E
:104310003B62FB691B0DFB61BB691B0BBB617B69CE
:104320001B097B61BB691A01FB691B021A433B6ACB
:104330001B0313437A6913437B62FB681B687A6A29
:104340009A6303E0FB681B68BA68DA6000BF2C3729
:10435000BD465DF8047B704780B489B000AF7860DB
:10436000396000237B6100233B610023BB61002394
:10437000FB6177E10122FB6902FA03F37B613B6891
:104380001B687A6913403B613A697B699A4240F045
:1043900066813B685B68012B0BD03B685B68022B36
:1043A00007D03B685B68112B03D03B685B68122B1E
:1043B00030D17B689B68BB61FB695B00032202FA1A
:1043C00003F3DB43BA691340BB613B68DA68FB69FE
:1043D0005B0002FA03F3BA691343BB617B68BA69F5
:1043E0009A607B685B68BB610122FB6902FA03F398
:1043F000DB43BA691340BB613B685B681B0903F090
:104400000102FB6902FA03F3BA691343BB617B68DB
:10441000BA695A607B68DB68BB61FB695B00032299
:1044200002FA03F3DB43BA691340BB613B689A6845
:10443000FB695B0002FA03F3BA691343BB617B6853
:10444000BA69DA603B685B68022B03D03B685B6843
:10445000122B23D1FB69DA087B68083253F822302B
:10446000BB61FB6903F007039B000F2202FA03F311
:10447000DB43BA691340BB613B681A69FB6903F00F
:1044800007039B0002FA03F3BA691343BB61FB699C
:10449000DA087B680832B96943F822107B681B6828
:1044A000BB61FB695B00032202FA03F3DB43BA69D9
:1044B0001340BB613B685B6803F00302FB695B0070
:1044C00002FA03F3BA691343BB617B68BA691A60E5
:1044D0003B685B6803F08053002B00F0C080002332
:1044E000FB60654B5B6C644A43F480435364624BEE
:1044F0005B6C03F48043FB60FB68604AFB699B08CC
:10450000023352F82330BB61FB6903F003039B00C5
:104510000F2202FA03F3DB43BA691340BB617B68E5
:10452000574A934237D07B68564A934231D07B68D2
:10453000554A93422BD07B68544A934225D07B68DE
:10454000534A93421FD07B68524A934219D07B68EA
:10455000514A934213D07B68504A93420DD07B68F6
:104560004F4A934207D07B684E4A934201D10923B8
:1045700012E00A2310E008230EE007230CE00623D4
:104580000AE0052308E0042306E0032304E00223F5
:1045900002E0012300E00023FA6902F00302920026
:1045A0009340BA691343BB613449FB699B080233EA
:1045B000BA6941F823203C4B1B68BB613B69DB4374
:1045C000BA691340BB613B685B6803F48033002B1E
:1045D00003D0BA693B691343BB61334ABB691360BB
:1045E000314B5B68BB613B69DB43BA691340BB611C
:1045F0003B685B6803F40033002B03D0BA693B6966
:104600001343BB61284ABB695360274B9B68BB615E
:104610003B69DB43BA691340BB613B685B6803F4E9
:104620008013002B03D0BA693B691343BB611E4A58
:10463000BB6993601C4BDB68BB613B69DB43BA69B8
:104640001340BB613B685B6803F40013002B03D08D
:10465000BA693B691343BB61134ABB69D360FB6909
:104660000133FB61FB690F2B7FF684AE00BF24375B
:10467000BD465DF8047B70470038024000380140B9
:10468000000002400004024000080240000C02400A
:10469000001002400014024000180240001C0240BA
:1046A0000020024000240240003C014080B485B05C
:1046B00000AF78600B467B807B681A697B8813406B
:1046C000002B02D00123FB7301E00023FB73FB7B73
:1046D00018461437BD465DF8047B704780B483B03C
:1046E00000AF78600B467B8013467B707B78002B95
:1046F00003D07A887B689A6103E07B881A047B6820
:104700009A6100BF0C37BD465DF8047B704780B4EA
:1047100083B000AF78600B467B807B685A697B88EA
:104720001A407B889A4204D17B881A047B689A617C
:1047300002E07A887B689A6100BF0C37BD465DF85D
:10474000047B704780B582B000AF0346FB80084B06
:104750005A69FB881340002B06D0054AFB88536139
:10476000FB881846FCF788FD00BF0837BD4680BDB2
:10477000003C014080B584B000AF78607B68002BBE
:1047800001D101231FE17B6893F83D30DBB2002BA0
:1047900006D17B68002283F83C207868FDF738FD5D
:1047A0007B68242283F83D207B681B681A687B683D
:1047B0001B6822F001021A607B681B681A687B681C
:1047C0001B6842F400421A607B681B681A687B68A9
:1047D0001B6822F400421A6002F012FCF8607B6849
:1047E0005B687B4A934207D8FB687A4A934294BF3E
:1047F00001230023DBB206E0FB68774A934294BFB3
:1048000001230023DBB2002B01D00123DBE0FB6896
:10481000724AA2FB03239B0CBB607B681B685B682E
:1048200023F03F017B681B68BA680A435A607B68C3
:104830001B681B6A23F03F017B685B68644A9342F4
:1048400002D8BB68013309E0BB684FF4967202FBE3
:1048500003F3634AA2FB03239B0901337A681268BE
:104860000B4313627B681B68DB6923F44F4222F021
:10487000FF027B685B6856498B420DD8FB68591E66
:104880007B685B685B00B1FBF3F30133C3F30B039D
:10489000042B38BF04234FE07B689B68002B11D1A9
:1048A000FB68581E7B6859680B465B000B44B0FBE5
:1048B000F3F30133C3F30B03002B0CBF01230023DD
:1048C000DBB212E0FB68581E7B6859680B469B0000
:1048D0000B4499000B44B0FBF3F30133C3F30B0318
:1048E000002B0CBF01230023DBB2002B01D00123DE
:1048F00022E07B689B68002B0ED1FB68581E7B680A
:1049000059680B465B000B44B0FBF3F30133C3F370
:104910000B0343F400430FE0FB68581E7B685968A3
:104920000B469B000B4499000B44B0FBF3F301339F
:10493000C3F30B0343F44043796809681343CB6125
:104940007B681B681B6823F0C0017B68DA697B68A1
:104950001B6A1A437B681B680A431A607B681B68E2
:104960009B6823F4034323F0FF037A6811697A6894
:10497000D26811437A6812680B4393607B681B68A6
:10498000DB6823F0FF017B685A697B689B691A43E7
:104990007B681B680A43DA607B681B681A687B685F
:1049A0001B6842F001021A607B6800221A647B686F
:1049B000202283F83D207B6800221A637B68002256
:1049C00083F83E20002318461037BD4680BD00BF47
:1049D000A08601007F841E00FF083D0083DE1B438C
:1049E000D34D621080B588B002AFF8607A601A4685
:1049F0000B467B8113463B81FEF738FF7861FB68ED
:104A000093F83D30DBB2202B40F0E0807B690093CF
:104A1000192301227049F86801F0F0F80346002BD1
:104A200001D00223D3E0FB6893F83C30012B01D185
:104A30000223CCE0FB68012283F83C20FB681B6862
:104A40001B6803F00103012B07D0FB681B681A6881
:104A5000FB681B6842F001021A60FB681B681A6859
:104A6000FB681B6822F400621A60FB68212283F84D
:104A70003D20FB68102283F83E20FB6800221A6468
:104A8000FB687A685A62FB683A895A85FB685B8DD5
:104A90009AB2FB681A85FB68504ADA6279897B69A9
:104AA0003A6AF86800F0E2FD0346002B01D00123CA
:104AB0008DE000233B61FB681B685B693B61FB6821
:104AC0001B689B693B613B6966E07A69396AF868F3
:104AD00001F06AF90346002B0DD0FB681B6C042B18
:104AE00007D1FB681B681A68FB681B6842F40072F8
:104AF0001A6001236BE0FB685B6A1A78FB681B682D
:104B00001A61FB685B6A5A1CFB685A62FB685B8D22
:104B10009BB2013B9AB2FB685A85FB681B8D013B37
:104B20009AB2FB681A85FB681B685B6903F0040393
:104B3000042B1BD1FB681B8D002B17D0FB685B6A15
:104B40001A78FB681B681A61FB685B6A5A1CFB6871
:104B50005A62FB685B8D9BB2013B9AB2FB685A8537
:104B6000FB681B8D013B9AB2FB681A857A69396A2A
:104B7000F86801F05AF90346002B0DD0FB681B6C56
:104B8000042B07D1FB681B681A68FB681B6842F49A
:104B900000721A6001231AE0FB681B8D002B94D170
:104BA000FB681B681A68FB681B6842F400721A6095
:104BB000FB68202283F83D20FB68002283F83E201A
:104BC000FB68002283F83C20002300E00223184603
:104BD0001837BD4680BD00BF020010000000FFFF77
:104BE00080B58CB002AFF8607A601A460B467B81C4
:104BF00013463B81FEF73AFE7862FB6893F83D303E
:104C0000DBB2202B40F00B827B6A00931923012238
:104C10007C49F86800F0F2FF0346002B01D0022324
:104C2000FEE1FB6893F83C30012B01D10223F7E150
:104C3000FB68012283F83C20FB681B681B6803F0BB
:104C40000103012B07D0FB681B681A68FB681B680F
:104C500042F001021A60FB681B681A68FB681B6857
:104C600022F400621A60FB68222283F83D20FB6870
:104C7000102283F83E20FB6800221A64FB687A68E1
:104C80005A62FB683A895A85FB685B8D9AB2FB6869
:104C90001A85FB685C4ADA6279897B6A3A6BF86844
:104CA00000F066FD0346002B01D00123B8E1FB684C
:104CB0001B8D002B13D100233B62FB681B685B69D3
:104CC0003B62FB681B689B693B623B6AFB681B6835
:104CD0001A68FB681B6842F400721A608CE1FB687A
:104CE0001B8D012B1BD1FB681B681A68FB681B68B6
:104CF00022F480621A600023FB61FB681B685B6919
:104D0000FB61FB681B689B69FB61FB69FB681B68B7
:104D10001A68FB681B6842F400721A606CE1FB6859
:104D20001B8D022B1BD1FB681B681A68FB681B6874
:104D300022F480621A60FB681B681A68FB681B68B3
:104D400042F400621A600023BB61FB681B685B6968
:104D5000BB61FB681B689B69BB61BB694CE1FB687D
:104D60001B681A68FB681B6842F480621A600023A3
:104D70007B61FB681B685B697B61FB681B689B69E7
:104D80007B617B6938E1FB681B8D032B00F2F180AE
:104D9000FB681B8D012B23D17A6A396BF86801F00F
:104DA00085F80346002B01D0012339E1FB681B681D
:104DB0001A69FB685B6AD2B21A70FB685B6A5A1C9C
:104DC000FB685A62FB681B8D013B9AB2FB681A852F
:104DD000FB685B8D9BB2013B9AB2FB685A850BE185
:104DE000FB681B8D022B4ED17B6A00933B6B00222C
:104DF0000649F86800F002FF0346002B08D00123A3
:104E00000EE100BF020010000000FFFF04000100DF
:104E1000FB681B681A68FB681B6842F400721A6022
:104E2000FB681B681A69FB685B6AD2B21A70FB6880
:104E30005B6A5A1CFB685A62FB681B8D013B9AB285
:104E4000FB681A85FB685B8D9BB2013B9AB2FB68DD
:104E50005A85FB681B681A69FB685B6AD2B21A70D4
:104E6000FB685B6A5A1CFB685A62FB681B8D013B3E
:104E70009AB2FB681A85FB685B8D9BB2013B9AB2C4
:104E8000FB685A85B8E07B6A00933B6B0022664959
:104E9000F86800F0B3FE0346002B01D00123BFE009
:104EA000FB681B681A68FB681B6822F480621A6042
:104EB000FB681B681A69FB685B6AD2B21A70FB68F0
:104EC0005B6A5A1CFB685A62FB681B8D013B9AB2F5
:104ED000FB681A85FB685B8D9BB2013B9AB2FB684D
:104EE0005A857B6A00933B6B00224F49F86800F0BB
:104EF00085FE0346002B01D0012391E0FB681B686F
:104F00001A68FB681B6842F400721A60FB681B6831
:104F10001A69FB685B6AD2B21A70FB685B6A5A1C3A
:104F2000FB685A62FB681B8D013B9AB2FB681A85CD
:104F3000FB685B8D9BB2013B9AB2FB685A85FB68AC
:104F40001B681A69FB685B6AD2B21A70FB685B6AFD
:104F50005A1CFB685A62FB681B8D013B9AB2FB68C6
:104F60001A85FB685B8D9BB2013B9AB2FB685A8540
:104F700042E07A6A396BF86800F098FF0346002B2C
:104F800001D001234CE0FB681B681A69FB685B6A6F
:104F9000D2B21A70FB685B6A5A1CFB685A62FB68E3
:104FA0001B8D013B9AB2FB681A85FB685B8D9BB237
:104FB000013B9AB2FB685A85FB681B685B6903F08A
:104FC0000403042B18D1FB681B681A69FB685B6A31
:104FD000D2B21A70FB685B6A5A1CFB685A62FB68A3
:104FE0001B8D013B9AB2FB681A85FB685B8D9BB2F7
:104FF000013B9AB2FB685A85FB681B8D002B7FF43E
:10500000C2AEFB68202283F83D20FB68002283F8B3
:105010003E20FB68002283F83C20002300E00223AE
:1050200018462837BD4680BD0400010080B588B011
:1050300002AFF860084611461A4603467B810B46CC
:105040003B811346FB80FEF711FC7861FB6893F807
:105050003D30DBB2202B40F0D9807B6900931923CF
:1050600001226D49F86800F0C9FD0346002B01D00C
:105070000223CCE0FB6893F83C30012B01D10223E2
:10508000C5E0FB68012283F83C20FB681B681B68B5
:1050900003F00103012B07D0FB681B681A68FB684B
:1050A0001B6842F001021A60FB681B681A68FB6803
:1050B0001B6822F400621A60FB68212283F83D20FD
:1050C000FB68402283F83E20FB6800221A64FB68DC
:1050D0003A6A5A62FB68BA8C5A85FB685B8D9AB251
:1050E000FB681A85FB684D4ADA62F8883A89798943
:1050F0007B690193BB6A00930346F86800F004FCE7
:105100000346002B52D0012381E07A69B96AF8681E
:1051100000F04AFE0346002B0DD0FB681B6C042BED
:1051200007D1FB681B681A68FB681B6842F40072B1
:105130001A6001236BE0FB685B6A1A78FB681B68E6
:105140001A61FB685B6A5A1CFB685A62FB681B8D1C
:10515000013B9AB2FB681A85FB685B8D9BB2013BF1
:105160009AB2FB685A85FB681B685B6903F004030D
:10517000042B1BD1FB681B8D002B17D0FB685B6ACF
:105180001A78FB681B681A61FB685B6A5A1CFB682B
:105190005A62FB681B8D013B9AB2FB681A85FB685B
:1051A0005B8D9BB2013B9AB2FB685A85FB681B8DF5
:1051B000002BAAD17A69B96AF86800F036FE034676
:1051C000002B0DD0FB681B6C042B07D1FB681B6800
:1051D0001A68FB681B6842F400721A60012316E02B
:1051E000FB681B681A68FB681B6842F400721A604F
:1051F000FB68202283F83D20FB68002283F83E20D4
:10520000FB68002283F83C20002300E002231846BC
:105210001837BD4680BD00BF020010000000FFFF30
:1052200080B58CB002AFF860084611461A460346B6
:105230007B810B463B811346FB80FEF717FB7862B0
:10524000FB6893F83D30DBB2202B40F008827B6A8C
:105250000093192301227B49F86800F0CFFC034634
:10526000002B01D00223FBE1FB6893F83C30012BBB
:1052700001D10223F4E1FB68012283F83C20FB68A2
:105280001B681B6803F00103012B07D0FB681B6838
:105290001A68FB681B6842F001021A60FB681B6811
:1052A0001A68FB681B6822F400621A60FB682222FD
:1052B00083F83D20FB68402283F83E20FB680022F3
:1052C0001A64FB683A6B5A62FB68BA8E5A85FB68AF
:1052D0005B8D9AB2FB681A85FB685B4ADA62F888D4
:1052E0003A8979897B6A0193BB6B00930346F8681E
:1052F00000F09EFB0346002B01D00123B0E1FB68C8
:105300001B8D002B13D100233B62FB681B685B697C
:105310003B62FB681B689B693B623B6AFB681B68DE
:105320001A68FB681B6842F400721A6084E1FB682B
:105330001B8D012B1BD1FB681B681A68FB681B685F
:1053400022F480621A600023FB61FB681B685B69C2
:10535000FB61FB681B689B69FB61FB69FB681B6861
:105360001A68FB681B6842F400721A6064E1FB680B
:105370001B8D022B1BD1FB681B681A68FB681B681E
:1053800022F480621A60FB681B681A68FB681B685D
:1053900042F400621A600023BB61FB681B685B6912
:1053A000BB61FB681B689B69BB61BB6944E100236F
:1053B0007B61FB681B685B697B61FB681B689B69A1
:1053C0007B617B6938E1FB681B8D032B00F2F18068
:1053D000FB681B8D012B23D17A6AB96BF86800F04A
:1053E00065FD0346002B01D0012339E1FB681B68F2
:1053F0001A69FB685B6AD2B21A70FB685B6A5A1C56
:10540000FB685A62FB681B8D013B9AB2FB681A85E8
:10541000FB685B8D9BB2013B9AB2FB685A850BE13E
:10542000FB681B8D022B4ED17B6A0093BB6B002265
:105430000649F86800F0E2FB0346002B08D0012380
:105440000EE100BF020010000000FFFF0400010099
:10545000FB681B681A68FB681B6842F400721A60DC
:10546000FB681B681A69FB685B6AD2B21A70FB683A
:105470005B6A5A1CFB685A62FB681B8D013B9AB23F
:10548000FB681A85FB685B8D9BB2013B9AB2FB6897
:105490005A85FB681B681A69FB685B6AD2B21A708E
:1054A000FB685B6A5A1CFB685A62FB681B8D013BF8
:1054B0009AB2FB681A85FB685B8D9BB2013B9AB27E
:1054C000FB685A85B8E07B6A0093BB6B0022664993
:1054D000F86800F093FB0346002B01D00123BFE0E6
:1054E000FB681B681A68FB681B6822F480621A60FC
:1054F000FB681B681A69FB685B6AD2B21A70FB68AA
:105500005B6A5A1CFB685A62FB681B8D013B9AB2AE
:10551000FB681A85FB685B8D9BB2013B9AB2FB6806
:105520005A857B6A0093BB6B00224F49F86800F0F4
:1055300065FB0346002B01D0012391E0FB681B684B
:105540001A68FB681B6842F400721A60FB681B68EB
:105550001A69FB685B6AD2B21A70FB685B6A5A1CF4
:10556000FB685A62FB681B8D013B9AB2FB681A8587
:10557000FB685B8D9BB2013B9AB2FB685A85FB6866
:105580001B681A69FB685B6AD2B21A70FB685B6AB7
:105590005A1CFB685A62FB681B8D013B9AB2FB6880
:1055A0001A85FB685B8D9BB2013B9AB2FB685A85FA
:1055B00042E07A6AB96BF86800F078FC0346002B89
:1055C00001D001234CE0FB681B681A69FB685B6A29
:1055D000D2B21A70FB685B6A5A1CFB685A62FB689D
:1055E0001B8D013B9AB2FB681A85FB685B8D9BB2F1
:1055F000013B9AB2FB685A85FB681B685B6903F044
:105600000403042B18D1FB681B681A69FB685B6AEA
:10561000D2B21A70FB685B6A5A1CFB685A62FB685C
:105620001B8D013B9AB2FB681A85FB685B8D9BB2B0
:10563000013B9AB2FB685A85FB681B8D002B7FF4F7
:10564000C2AEFB68202283F83D20FB68002283F86D
:105650003E20FB68002283F83C20002300E0022368
:1056600018462837BD4680BD0400010080B588B0CB
:1056700002AFF8607A603B600B467B81FB68DB6AB7
:105680007B617B69082B06D07B69012B03D07B698A
:1056900013F5803F08D1FB681B681A68FB681B681C
:1056A00042F480721A600BE0FB681B6B122B07D16F
:1056B000FB681B681A68FB681B6842F480721A60FA
:1056C0003B6800937B6800224FF00111F86800F0FE
:1056D00095FA0346002B0CD0FB681B681B6803F48B
:1056E0008073002B03D0FB684FF400721A6403230D
:1056F00035E0FB681B69B3F5804F08D17B89DBB2CD
:105700001A46FB681B6802F0FE021A611BE07B89E7
:10571000DB11DBB203F00603DBB263F00F03DAB296
:10572000FB681B681A613B687A680F49F86800F0EB
:10573000BCFA0346002B01D0012310E07B89DAB2CA
:10574000FB681B681A613B687A680849F86800F0D2
:10575000ACFA0346002B01D0012300E000231846D9
:105760001837BD4680BD00BF0800010002000100DF
:1057700080B588B002AFF8607A603B600B467B81F1
:10578000FB68DB6A7B61FB681B681A68FB681B6847
:1057900042F480621A607B69082B06D07B69012B7A
:1057A00003D07B6913F5803F08D1FB681B681A683A
:1057B000FB681B6842F480721A600BE0FB681B6B8D
:1057C000112B07D1FB681B681A68FB681B6842F441
:1057D00080721A603B6800937B6800224FF00111D1
:1057E000F86800F00BFA0346002B0CD0FB681B682E
:1057F0001B6803F48073002B03D0FB684FF4007226
:105800001A64032378E0FB681B69B3F5804F08D165
:105810007B89DBB243F00103DAB2FB681B681A61D3
:105820005EE07B89DB11DBB203F00603DBB263F0E1
:105830000F03DAB2FB681B681A613B687A6830496B
:10584000F86800F032FA0346002B01D0012353E040
:105850007B89DAB2FB681B681A613B687A68294960
:10586000F86800F022FA0346002B01D0012343E040
:1058700000233B61FB681B685B693B61FB681B683D
:105880009B693B613B69FB681B681A68FB681B6886
:1058900042F480721A603B6800937B6800224FF0EC
:1058A0000111F86800F0AAF90346002B0CD0FB6840
:1058B0001B681B6803F48073002B03D0FB684FF454
:1058C00000721A64032317E07B89DB11DBB203F05B
:1058D0000603DBB263F00E03DAB2FB681B681A61E1
:1058E0003B687A680749F86800F0DFF90346002B47
:1058F00001D0012300E0002318461837BD4680BDC3
:10590000080001000200010080B588B002AFF86015
:10591000084611461A4603467B810B463B811346D7
:10592000FB80FB681B681A68FB681B6842F4807286
:105930001A607B6A00933B6A00224FF00111F868FD
:1059400000F05CF90346002B0CD0FB681B681B6859
:1059500003F48073002B03D0FB684FF400721A64C9
:1059600003235FE07B89DBB21A46FB681B6802F009
:10597000FE021A617B6A3A6A2C49F86800F095F9D0
:105980000346002B01D001234CE000237B61FB6820
:105990001B685B697B61FB681B689B697B617B693A
:1059A0007A6A396AF86800F0FFF90346002B0DD0D7
:1059B000FB681B6C042B07D1FB681B681A68FB682B
:1059C0001B6842F400721A6001232BE0FB88012B54
:1059D00005D13B89DAB2FB681B681A6121E03B897B
:1059E0001B0A9BB2DAB2FB681B681A617A6A396AD1
:1059F000F86800F0D9F90346002B0DD0FB681B6C4A
:105A0000042B07D1FB681B681A68FB681B6842F40B
:105A100000721A60012305E03B89DAB2FB681B685B
:105A20001A61002318461837BD4680BD02000100E8
:105A300080B588B002AFF860084611461A460346A2
:105A40007B810B463B811346FB80FB681B681A6811
:105A5000FB681B6842F480621A60FB681B681A6866
:105A6000FB681B6842F480721A607B6A00933B6A91
:105A700000224FF00111F86800F0C0F80346002B37
:105A80000CD0FB681B681B6803F48073002B03D0E9
:105A9000FB684FF400721A640323A9E07B89DBB230
:105AA0001A46FB681B6802F0FE021A617B6A3A6ABA
:105AB0005149F86800F0F9F80346002B01D00123A2
:105AC00096E000237B61FB681B685B697B61FB6878
:105AD0001B689B697B617B697A6A396AF86800F0A8
