:020000040800F2
:1000000000000320E51A00087D1600088B16000882
:1000100091160008971600089D16000800000000C1
:10002000000000000000000000000000A31600080F
:10003000B116000800000000BF160008CD16000829
:10004000351B0008351B0008351B0008351B000850
:10005000351B0008351B0008351B0008351B000840
:10006000351B0008351B0008351B0008351B000830
:10007000351B0008351B0008351B0008351B000820
:10008000351B0008351B0008351B0008351B000810
:10009000351B0008351B0008351B0008351B000800
:1000A000351B0008DD160008351B0008351B00084D
:1000B000351B0008351B0008351B0008351B0008E0
:1000C000351B0008351B0008351B0008351B0008D0
:1000D000351B0008351B0008351B0008351B0008C0
:1000E000F1160008351B0008351B0008351B0008F9
:1000F000351B0008351B0008351B0008351B0008A0
:10010000351B0008351B0008351B0008351B00088F
:10011000351B0008351B0008351B0008351B00087F
:10012000351B0008351B0008351B0008351B00086F
:10013000351B0008351B0008351B0008351B00085F
:10014000351B0008351B0008351B0008351B00084F
:10015000351B0008351B0008351B0008351B00083F
:10016000351B0008351B0008351B0008351B00082F
:10017000351B0008351B0008351B00080000000077
:10018000351B0008351B0008351B0008351B00080F
:10019000351B0008351B0008351B0008351B0008FF
:0C01A00001170008351B000815170008A7
:1001B00010B5054C237833B9044B13B10448AFF3A1
:1001C00000800123237010BD0059022000000000B0
:1001D000B0C1010808B5034B1BB103490348AFF395
:1001E000008008BD0000000004590220B0C10108D1
:1001F00001F0FF01102A2BDB10F0070F08D010F8D8
:10020000013B013A8B422DD010F0070F42B3F6D1DB
:10021000F0B441EA012141EA014122F007047FF0F4
:1002200000070023F0E80256083C85EA010586EA4B
:10023000010685FA47F5A3FA87F586FA47F6A5FA87
:1002400087F68EB9EED1F0BC01F0FF0102F0070293
:1002500032B110F8013B013A83EA010313B1F8D13E
:100260000020704701387047002D06BF354603381F
:10027000073815F0010F07D1013015F4807F02BF58
:10028000013015F4C03F0130F0BC0138704700BFA9
:1002900053B94AB9002908BF00281CBF4FF0FF31ED
:1002A0004FF0FF3000F072B9ADF1080C6DE904CEEB
:1002B00000F006F8DDF804E0DDE9022304B0704741
:1002C0002DE9F047089E04468846002B4BD18A4210
:1002D000154667D9B2FA82F24AB1C2F1200701FA93
:1002E00002F320FA07F7954047EA030894404FEAE3
:1002F000154E230CB8FBFEF71FFA85FC0EFB178882
:1003000043EA084307FB0CF1994209D9EB1807F1BE
:10031000FF3080F01B81994240F21881023F2B444C
:100320005B1AA4B2B3FBFEF00EFB103344EA0344A5
:1003300000FB0CFCA44509D92C1900F1FF3380F017
:100340000781A44540F2048102382C4440EA07406A
:10035000A4EB0C0400271EB1D4400023C6E90043DF
:100360003946BDE8F0878B4209D9002E00F0EB80BA
:100370000027C6E9000138463946BDE8F087B3FAE0
:1003800083F7002F47D18B4202D3824200F2FA80DA
:10039000841A61EB030301209846002EE0D0C6E9E1
:1003A0000048DDE702B9FFDEB2FA82F2002A40F02F
:1003B0008F80491B4FEA154E1FFA85F80127B1FBC4
:1003C000FEFC230C0EFB1C1143EA014308FB0CF15D
:1003D000994207D9EB180CF1FF3002D2994200F292
:1003E000CD808446591AA3B2B1FBFEF00EFB101467
:1003F00043EA044408FB00F8A04507D92C1900F192
:10040000FF3302D2A04500F2B6801846A4EB0804E0
:1004100040EA0C409FE7C7F1200CBB4022FA0CFEDB
:100420004EEA030E01FA07F420FA0CF521FA0CF358
:100430004FEA1E482543B3FBF8F92C0C08FB19338F
:100440001FFA8EFA44EA034309FB0AF49C4202FABB
:1004500007F200FA07F10BD91EEB030309F1FF3095
:1004600080F087809C4240F28480A9F102097344A5
:100470001B1BADB2B3FBF8F008FB103345EA034495
:1004800000FB0AFAA24508D91EEB040400F1FF3371
:100490006BD2A24569D90238744440EA0940A0FBF6
:1004A0000289A4EB0A044C45C2464B4654D351D0B2
:1004B000002E69D0B1EB0A0564EB030404FA0CFCCE
:1004C000FD40FC404CEA0505C6E90054002747E71B
:1004D000C2F1200320FA03F7954001FA02F021FA55
:1004E00003F34FEA154E3843010CB3FBFEF71FFA36
:1004F00085F80EFB173341EA034107FB08F38B42F3
:1005000004FA02F407D9691807F1FF3C2FD28B4295
:100510002DD9023F2944CB1A81B2B3FBFEF00EFB6A
:10052000103341EA034100FB08F38B4207D96918F5
:1005300000F1FF3C17D28B4215D902382944C91A61
:1005400040EA07473BE73746304609E70746E7E614
:100550001846FBE64145ABD2B8EB020A69EB0E0246
:1005600001381346A4E76046E9E7184695E7674671
:10057000D1E781467CE702382C4447E7ACF1020C16
:100580002B442FE7384608E73746E9E6704700BFB7
:1005900080B582B000AF0346FB80FB88B3F5006FE7
:1005A00001D101F011FA00BF0837BD4680BD00003F
:1005B00090B593B012AF01F0BFFA00F053F800F01D
:1005C00003FC00F0EBF800F05BF900F0D9F900F063
:1005D00017F900F0F1FA00F047FB00F0CBF800F05B
:1005E0009BFB05F0FDFB0021194804F0BFFE08212C
:1005F000184804F0BBFE0C21174804F0B7FE144B5A
:100600001B6850225A63134B1B682822DA63124B73
:100610001B6864221A6401224FF400510F4802F053
:10062000BFF9002202210D4802F0BAF90C4C6846CD
:1006300004F11003442219461AF032FE94E80F0028
:1006400001F08AF9322001F0B9FA05F0CFFBF9E7A1
:100650008873022008720220C0710220000C024040
:100660006C71022080B5A0B000AF07F150033022BA
:10067000002118461AF01FFE07F13C0300221A6001
:100680005A609A60DA601A6107F10C033022002187
:1006900018461AF010FE354B5B6823F03F03334ACF
:1006A00043F008035360314B5B68304A23F4800306
:1006B00053600023BB602D4B1B6C2C4A43F08053CE
:1006C00013642A4B1B6C03F08053BB60BB68002390
:1006D0007B60274B1B6823F44043254A43F4804347
:1006E0001360234B1B6803F440437B607B68022349
:1006F0003B650123FB6510233B660023BB6600239B
:10070000FB6607F15003184603F03CFD0346002B3F
:1007100001D000F05BFC0F23FB6300233B6400234C
:100720007B640023BB640023FB6407F13C030021CE
:10073000184603F097FF0346002B01D000F046FC5B
:100740000823FB603C23FB6105237B6200233B63A2
:1007500007F10C03184604F083F90346002B01D07F
:1007600000F034FC00BF8037BD4680BD0038024039
:100770000070004080B500AF064B074A1A6005487C
:1007800001F050FB0346002B01D000F01FFC00BF1E
:1007900080BD00BF007202200030024080B500AF73
:1007A000154B164A1A60144B00225A60124B022253
:1007B0009A60114B0022DA600F4B00229A620E4BB6
:1007C0000222DA620C4B00221A630B4B00225A639E
:1007D000094801F043FB0346002B01D000F0F6FB73
:1007E0000121054801F004FE0346002B01D000F072
:1007F000EDFB00BF80BD00BF4873022000B0024087
:1008000080B500AF1B4B1C4A1A601A4B1B4A5A603A
:10081000184B00229A60174B0022DA60154B4FF4F8
:1008200080421A61134B00225A61124B00229A61D6
:10083000104B0022DA610F4B00221A620D4802F0C1
:10084000E1F80346002B01D000F0C0FB002109486D
:1008500003F087F80346002B01D000F0B7FB00211E
:10086000044803F0BAF80346002B01D000F0AEFBB9
:1008700000BF80BD6C710220005C0040A0860100BA
:1008800080B58EB000AF3B1D3422002118461AF00F
:1008900012FD394B394A1A60374B00225A60364BE9
:1008A00000229A60344B0022DA60334B00221A6136
:1008B000314B09225A61304B01229A612E4B13228F
:1008C000DA612D4B03221A622B4B40F203125A625B
:1008D000294B40F243129A62274B40F21712DA6218
:1008E000254B40F247121A63234B002283F8342031
:1008F000214B002283F835201F4B002283F836203D
:100900001D4803F0A9F80346002B01D000F05EFB60
:1009100000237B60F023BB600023FB604FF4A073D7
:100920003B6102237B61FF23BB61FF23FB614FF42B
:1009300080633B6205237B620023BB62F023FB6282
:100940004FF4A0733B63002387F83430002387F80B
:100950003530002387F836303B1D00221946064803
:1009600003F002FA0346002B01D000F02FFB00BF7A
:100970003837BD4680BD00BFA0720220006801402C
:1009800080B500AF8A4B8B4A1A60894B4FF4827254
:100990005A60874B4FF400429A60854B0022DA6020
:1009A000834B00221A61824B00225A61804B4FF424
:1009B00000729A617E4B0022DA617D4B00221A623E
:1009C0007B4B00225A627A4B00229A62784B0A22B1
:1009D000DA62774804F002FA0346002B01D000F0F7
:1009E000F5FA102000F098FAC82001F0E7F801208D
:1009F00000F092FAC82001F0E1F8112000F08CFA22
:100A0000C82001F0DBF8292000F086FA362000F03B
:100A100083FA082000F0A4FA3A2000F07DFA0520BD
:100A200000F09EFAB02000F077FA112000F098FA5A
:100A3000C82000F095FAB12000F06EFAC22000F054
:100A40008FFAFF2000F08CFAFF2000F089FA0B20CB
:100A500000F062FA002000F083FA202000F05CFA37
:100A6000212000F059FAB22000F056FA0C2000F0D4
:100A700077FA0C2000F074FA002000F071FA3320AD
:100A800000F06EFA332000F06BFAB72000F044FA61
:100A9000352000F065FABB2000F03EFA2B2000F074
:100AA0005FFAC02000F038FA2C2000F059FAC2207A
:100AB00000F032FA012000F053FAC32000F02CFAC3
:100AC000172000F04DFAC42000F026FA202000F094
:100AD00047FAC62000F020FA0A2000F041FAD020A0
:100AE00000F01AFAA42000F03BFAA12000F038FA36
:100AF000E02000F011FAD02000F032FA0F2000F0D0
:100B00002FFA172000F02CFA0D2000F029FA0E2001
:100B100000F026FA022000F023FA3D2000F020FA2F
:100B2000442000F01DFA4E2000F01AFA0C2000F0CC
:100B300017FA1B2000F014FA1B2000F011FA1C20F9
:100B400000F00EFA1F2000F00BFAE12000F0E4F9AB
:100B5000D02000F005FA0F2000F002FA172000F074
:100B6000FFF90D2000F0FCF90E2000F0F9F9022049
:100B700000F0F6F93D2000F0F3F9442000F0F0F920
:100B80004E2000F0EDF90C2000F0EAF91B2000F0F7
:100B9000E7F91B2000F0E4F91C2000F0E1F91F2028
:100BA00000F0DEF9292000F0B7F900BF80BD00BFDA
:100BB00048720220003C004080B58AB000AF07F1C7
:100BC000200300221A605A603B1D00221A605A60FE
:100BD0009A60DA601A615A619A61224B4FF0804242
:100BE0001A60204B77225A601E4B00229A601D4BE0
:100BF0006422DA601B4B00221A611A4B00229A61B0
:100C0000184804F088FB0346002B01D000F0DEF901
:100C100000233B6200237B6207F120031946114841
:100C200005F04EF80346002B01D000F0CFF9602309
:100C30007B603223BB600023FB6000237B613B1D94
:100C400000221946074804F0D7FC0346002B01D0C8
:100C500000F0BCF9034800F02FFC00BF2837BD4668
:100C600080BD00BF8873022080B58AB000AF07F155
:100C7000200300221A605A603B1D00221A605A604D
:100C80009A60DA601A615A619A61214B214A1A60AE
:100C90001F4B77225A601E4B00229A601C4B642225
:100CA000DA601B4B00221A61194B00229A61184826
:100CB00004F031FB0346002B01D000F087F900233C
:100CC0003B6200237B6207F120031946104804F0C1
:100CD000F7FF0346002B01D000F078F960237B601A
:100CE0003223BB600023FB6000237B613B1D082295
:100CF0001946074804F080FC0346002B01D000F0A1
:100D000065F9034800F0D8FB00BF2837BD4680BD19
:100D1000087202200004004080B58AB000AF07F1DD
:100D2000200300221A605A603B1D00221A605A609C
:100D30009A60DA601A615A619A61214B214A1A60FD
:100D40001F4B77225A601E4B00229A601C4B642274
:100D5000DA601B4B00221A61194B00229A61184875
:100D600004F0D9FA0346002B01D000F02FF900233C
:100D70003B6200237B6207F120031946104804F010
:100D80009FFF0346002B01D000F020F960237B6019
:100D90000023BB600023FB6000237B613B1D0C2212
:100DA0001946074804F028FC0346002B01D000F048
:100DB0000DF9034800F080FB00BF2837BD4680BD19
:100DC000C07102200008004080B58CB000AF07F170
:100DD0001C0300221A605A609A60DA601A610023CC
:100DE000BB61494B1B6B484A43F080031363464B7E
:100DF0001B6B03F08003BB61BB6900237B61424B2B
:100E00001B6B414A43F0010313633F4B1B6B03F021
:100E100001037B617B6900233B613B4B1B6B3A4ABF
:100E200043F004031363384B1B6B03F004033B6173
:100E30003B690023FB60344B1B6B334A43F00203D6
:100E40001363314B1B6B03F00203FB60FB68002351
:100E5000BB602D4B1B6B2C4A43F0100313632A4BD2
:100E60001B6B03F01003BB60BB6800237B60264B49
:100E70001B6B254A43F008031363234B1B6B03F0E2
:100E800008037B607B6800222021204801F088FD58
:100E9000002242F203211E4801F082FD2023FB6163
:100EA00001233B6200237B620023BB6207F11C032A
:100EB0001946164801F0CAFB42F20323FB610123E5
:100EC0003B6200237B620023BB6207F11C031946CF
:100ED0000F4801F0BBFB4FF40063FB610D4B3B621D
:100EE00000237B6207F11C031946094801F0AEFBA1
:100EF00000220021282000F05DFF282000F076FF6E
:100F000000BF3037BD4680BD0038024000080240B7
:100F1000000C02400000111080B582B000AF034603
:100F2000FB71002220210B4801F03AFD0022012133
:100F3000094801F035FDF91D0A230122074803F095
:100F4000B1FF01220121044801F02AFD00BF08374A
:100F5000BD4680BD00080240000C024048720220DD
:100F600080B582B000AF0346FB71012220210B48FF
:100F700001F016FD00220121094801F011FDF91DC3
:100F80000A230122074803F08DFF012201210448B2
:100F900001F006FD00BF0837BD4680BD00080240D5
:100FA000000C02404872022080B582B000AF786029
:100FB0007B681B68044A934201D100F0DFFD00BF4B
:100FC0000837BD4680BD00BF0000014080B400AFBF
:100FD00000BFBD465DF8047B7047000080B483B05D
:100FE00000AF00237B60104B5B6C0F4A43F48043DF
:100FF00053640D4B5B6C03F480437B607B68002380
:101000003B60094B1B6C084A43F080531364064B4A
:101010001B6C03F080533B603B6800BF0C37BD4640
:101020005DF8047B704700BF0038024080B485B093
:1010300000AF78607B681B680B4A93420DD1002398
:10104000FB600A4B1B6B094A43F480531363074B45
:101050001B6B03F48053FB60FB6800BF1437BD4675
:101060005DF8047B704700BF00300240003802404A
:1010700080B584B000AF78607B681B680E4A9342ED
:1010800015D10023FB600D4B1B6B0C4A43F400038E
:1010900013630A4B1B6B03F40003FB60FB68002225
:1010A00000215A2000F086FE5A2000F09FFE00BF6B
:1010B0001037BD4680BD00BF00B00240003802407E
:1010C00080B582B000AF78607B681B68074A9342A6
:1010D00008D1074B1B6B064A23F4000313635A2005
:1010E00000F092FE00BF0837BD4680BD00B0024050
:1010F0000038024080B58AB000AF786007F1140371
:1011000000221A605A609A60DA601A617B681B6874
:10111000294A93424BD100233B61284B1B6B274A42
:1011200043F004031363254B1B6B03F004033B6183
:101130003B690023FB60214B1B6B204A43F00103FA
:1011400013631E4B1B6B03F00103FB60FB684FF442
:1011500000737B611223BB610123FB6103233B62AC
:1011600004237B6207F114031946154801F06EFA57
:101170004FF480737B611223BB610123FB61032366
:101180003B6204237B6207F1140319460D4801F00A
:101190005DFA0023BB60094B1B6C084A43F4000353
:1011A0001364064B1B6C03F40003BB60BB6800BFF9
:1011B0002837BD4680BD00BF005C004000380240BB
:1011C000000802400000024080B58EB000AF786099
:1011D00007F1240300221A605A609A60DA601A61EB
:1011E0007B681B68634A934240F0C08000233B62E7
:1011F000614B5B6C604A43F0806353645E4B5B6C95
:1012000003F080633B623B6A0023FB615A4B1B6B1C
:10121000594A43F001031363574B1B6B03F001035F
:10122000FB61FB690023BB61534B1B6B524A43F0CC
:1012300002031363504B1B6B03F00203BB61BB69DA
:1012400000237B614C4B1B6B4B4A43F01003136331
:10125000494B1B6B03F010037B617B6900233B61EF
:10126000454B1B6B444A43F008031363424B1B6B13
:1012700003F008033B613B690023FB603E4B1B6BA3
:101280003D4A43F0040313633B4B1B6B03F0040321
:10129000FB60FB6841F658037B620223BB620023BC
:1012A000FB6200233B630E237B6307F12403194693
:1012B000324801F0CBF903237B620223BB62002397
:1012C000FB6200233B6309237B6307F12403194678
:1012D0002B4801F0BBF94FF478437B620223BB62D9
:1012E0000023FB6200233B630E237B6307F124038F
:1012F0001946244801F0AAF94FF470637B62022377
:10130000BB620023FB6200233B630E237B6307F178
:10131000240319461A4801F099F94FF481637B625E
:101320000223BB620023FB6200233B630E237B632B
:1013300007F124031946144801F088F9C0237B62A1
:101340000223BB620023FB6200233B630E237B630B
:1013500007F1240319460D4801F078F90022002115
:10136000582000F027FD582000F040FD00BF38371E
:10137000BD4680BD006801400038024000000240C8
:101380000004024000100240000C0240000802402D
:1013900080B58AB000AF786007F1140300221A60AC
:1013A0005A609A60DA601A617B681B68194A934236
:1013B0002CD100233B61184B1B6C174A43F40043AC
:1013C0001364154B1B6C03F400433B613B69002322
:1013D000FB60114B1B6B104A43F0040313630E4B6D
:1013E0001B6B03F00403FB60FB684FF4A0537B61AD
:1013F0000223BB610023FB6103233B6206237B6264
:1014000007F114031946054801F020F900BF2837F9
:10141000BD4680BD003C004000380240000802404C
:1014200080B487B000AF78607B681B68B3F1804FF1
:101430000ED100237B611D4B1B6C1C4A43F0010342
:1014400013641A4B1B6C03F001037B617B6926E07C
:101450007B681B68164A93420ED100233B61134BF5
:101460001B6C124A43F002031364104B1B6C03F015
:1014700002033B613B6912E07B681B680D4A9342A3
:101480000DD10023FB60094B1B6C084A43F0040399
:101490001364064B1B6C03F00403FB60FB6800BF86
:1014A0001C37BD465DF8047B704700BF0038024022
:1014B000000400400008004080B58AB000AF7860AA
:1014C00007F1140300221A605A609A60DA601A6108
:1014D0007B681B68B3F1804F1ED100233B61354B05
:1014E0001B6B344A43F001031363324B1B6B03F055
:1014F00001033B613B6901237B610223BB61002344
:10150000FB6100233B6201237B6207F11403194650
:10151000294801F09BF848E07B681B68274A934202
:101520001FD10023FB60234B1B6B224A43F00403B3
:101530001363204B1B6B03F00403FB60FB684FF449
:1015400080737B610223BB610023FB6100233B624C
:1015500002237B6207F114031946194801F076F85B
:1015600023E07B681B68174A93421ED10023BB60AF
:10157000104B1B6B0F4A43F0080313630D4B1B6B9F
:1015800003F00803BB60BB684FF400437B61022398
:10159000BB610023FB6100233B6202237B6207F1F6
:1015A00014031946084801F051F800BF2837BD461A
:1015B00080BD00BF0038024000000240000400402F
:1015C0000008024000080040000C024080B58CB0CA
:1015D00000AF78600023FB620023BB6200227968C1
:1015E000192000F0E7FB192000F000FC0023FB604D
:1015F0001E4B5B6C1D4A43F0010353641B4B5B6C39
:1016000003F00103FB60FB6807F1100207F114030C
:101610001146184603F0F2F903F0DCF9F862FB6AB0
:10162000134AA2FB03239B0C013BBB62114B124AE2
:101630001A60104B40F2E732DA600E4ABB6A536020
:101640000C4B00221A610B4B00229A60094803F0F0
:1016500009FE0346002B04D1064803F038FE03467A
:1016600000E0012318463037BD4680BD00380240F7
:1016700083DE1B43C87302200000014080B400AF2A
:1016800000BFBD465DF8047B704780B400AFFEE745
:1016900080B400AFFEE780B400AFFEE780B400AFD7
:1016A000FEE780B400AF00BFBD465DF8047B704725
:1016B00080B400AF00BFBD465DF8047B704780B4C6
:1016C00000AF00BFBD465DF8047B704780B400AF3B
:1016D00000BFBD465DF8047B7047000080B500AFD9
:1016E000024803F081FE00BF80BD00BFC873022026
:1016F00080B500AF4FF4006001F06CF900BF80BD11
:1017000080B500AF024802F077FA00BF80BD00BF8D
:10171000A072022080B500AF024800F058FD00BF63
:1017200080BD00BF4873022080B400AF012318467B
:10173000BD465DF8047B704780B582B000AF78602D
:10174000396019F061FD0246162313604FF0FF3334
:1017500018460837BD4680BD80B582B000AF7860BE
:101760004FF0FF317868FFF7E7FFFEE780B586B0FE
:1017700000AFF860B9607A6000237B610AE0AFF3E4
:1017800000800146BB685A1CBA60CAB21A707B69F5
:1017900001337B617A697B689A42F0DB7B6818468B
:1017A0001837BD4680BD80B586B000AFF860B9601F
:1017B0007A6000237B6109E0BB685A1CBA601B7821
:1017C0001846AFF300807B6901337B617A697B68DF
:1017D0009A42F1DB7B6818461837BD4680BD80B45D
:1017E00083B000AF78604FF0FF3318460C37BD462A
:1017F0005DF8047B704780B483B000AF78603960D7
:101800003B684FF400525A60002318460C37BD461F
:101810005DF8047B704780B483B000AF786001232B
:1018200018460C37BD465DF8047B704780B485B020
:1018300000AFF860B9607A60002318461437BD46DF
:101840005DF8047B7047000080B584B000AF78601D
:10185000114B1B68002B02D10F4B104A1A600E4B24
:101860001B68FB600C4B1A687B6813446A46934202
:1018700007D919F0C9FC02460C2313604FF0FF335F
:1018800006E0054B1A687B681344034A1360FB6843
:1018900018461037BD4680BD2059022070740220C2
:1018A00080B400AF084BD3F88830074A43F4700384
:1018B000C2F88830044B4FF000629A6000BFBD460A
:1018C0005DF8047B704700BF00ED00E080B588B094
:1018D00004AF03463960FB711346BB710023FB73F1
:1018E0000B4BB3F85410FB7998B2BB799BB26422CE
:1018F000029201933B68009301230246044801F0E1
:10190000B3FA0346FB7300BF1037BD4680BD00BF6E
:101910000874022080B588B004AF03460A46FB7104
:101920001346BB710023FB730A4BB3F85410FB79C9
:101930009AB26423029301230193BB1D00930123F8
:10194000044801F097F90346FB7300BF1037BD460A
:1019500080BD00BF0874022084B080B500AF07F1DD
:10196000080C8CE80F0001224FF40071144801F0BC
:1019700017F8144B7022A3F85420124B184607F1A5
:10198000080154231A4619F08BFC0E4B002283F8F1
:1019900057200C4B0022A3F858200A4B0022A3F832
:1019A0005A2000210020FFF7B5FF0021A420FFF7F7
:1019B000B1FF00BFBD46BDE8804004B0704700BF26
:1019C000000C02400874022080B582B000AF3B1DBD
:1019D00000210A461A800A469A700023FB713B1DBB
:1019E000022219460320FFF771FF3B799B09FB7127
:1019F000FB79022B2DD11B4B012283F857203B7919
:101A000003F00703DBB23B713B791B021AB27B790F
:101A10001BB213431BB29AB2124BA3F858203B1DC2
:101A2000022219460520FFF751FF3B7903F0070317
:101A3000DBB23B713B791B021BB203F4E0631AB2C9
:101A40007B791BB213431BB29AB2064BA3F85A2000
:101A500003E0044B002283F8572000BF0837BD463F
:101A600080BD00BF0874022080B400AF034B93F820
:101A700057301846BD465DF8047B70470874022055
:101A800080B400AF034BB3F858301846BD465DF83C
:101A9000047B70470874022080B400AF034BB3F896
:101AA0005A301846BD465DF8047B70470874022022
:101AB00080B582B000AF7860FFF7D6FF03469AB2D8
:101AC0007B681A80FFF7DCFF03461A467B685A8062
:101AD000FFF7E2FF03461A467B689A8000BF08378B
:101AE000BD4680BDDFF834D0002103E00C4B5B58CD
:101AF000435004310B480C4B42189A42F6D30B4A20
:101B000002E0002342F8043B094B9A42F9D3FFF765
:101B1000C7FE19F091FBFEF74BFD70470000032054
:101B2000CC3B0908000000200001002000590220E1
:101B30006C740220FEE7000080B500AF0E4B1B68FE
:101B40000D4A43F4007313600B4B1B680A4A43F4BD
:101B500080631360084B1B68074A43F4807313606B
:101B6000032000F01CF90020FFF730FDFFF736FAE4
:101B70000023184680BD00BF003C024080B400AF87
:101B8000064B1B781A46064B1B681344044A136025
:101B900000BFBD465DF8047B704700BF0C0000200D
:101BA0006474022080B400AF034B1B681846BD4626
:101BB0005DF8047B704700BF6474022080B584B078
:101BC00000AF7860FFF7EEFFB8607B68FB60FB68F2
:101BD000B3F1FF3F05D0094B1B781A46FB6813444D
:101BE000FB6000BFFFF7DEFF0246BB68D31AFA684E
:101BF0009A42F7D800BF1037BD4680BD0C000020C8
:101C000080B485B000AF78607B6803F00703FB60A9
:101C10000C4BDB68BB60BA684FF6FF031340BB6038
:101C2000FB681A02BB68134343F0BF6343F40033FD
:101C3000BB60044ABB68D36000BF1437BD465DF883
:101C4000047B704700ED00E080B400AF044BDB681C
:101C50001B0A03F007031846BD465DF8047B704776
:101C600000ED00E080B483B000AF0346FB7197F94C
:101C70000730002B0BDBFB7903F01F02074997F9B4
:101C800007305B09012000FA02F241F8232000BF6F
:101C90000C37BD465DF8047B704700BF00E100E0F3
:101CA00080B483B000AF0346FB7197F90730002B77
:101CB00010DBFB7903F01F02094997F907305B0934
:101CC000012000FA02F2203341F82320BFF34F8FA6
:101CD000BFF36F8F00BF0C37BD465DF8047B7047C4
:101CE00000E100E080B483B000AF03463960FB71CF
:101CF00097F90730002B0ADB3B68DAB20C4997F9F9
:101D000007301201D2B20B4483F800230AE03B688B
:101D1000DAB20849FB7903F00F03043B1201D2B297
:101D20000B441A7600BF0C37BD465DF8047B704744
:101D300000E100E000ED00E080B489B000AFF860A1
:101D4000B9607A60FB6803F00703FB61FB69C3F1CC
:101D50000703042B28BF0423BB61FB690433062B54
:101D600002D9FB69033B00E000237B614FF0FF32A7
:101D7000BB6902FA03F3DA43BB681A407B699A40F5
:101D80004FF0FF317B6901FA03F3D9437B680B40C5
:101D9000134318462437BD465DF8047B704780B571
:101DA00082B000AF78607868FFF72AFF00BF08377D
:101DB000BD4680BD80B586B000AF0346B9607A608D
:101DC000FB7300237B61FFF73FFF78617A68B96896
:101DD0007869FFF7B1FF024697F90F3011461846B0
:101DE000FFF780FF00BF1837BD4680BD80B582B0C9
:101DF00000AF0346FB7197F907301846FFF732FF33
:101E000000BF0837BD4680BD80B582B000AF034635
:101E1000FB7197F907301846FFF742FF00BF0837FC
:101E2000BD4680BD80B582B000AF78607B68002B76
:101E300001D101230EE07B685B79DBB2002B05D179
:101E40007B6800221A717868FFF7F0F87B6801223E
:101E50005A71002318460837BD4680BD80B582B050
:101E600000AF78607B68002B01D101233BE07B68E9
:101E700093F83930DBB2002B06D17B68002283F85F
:101E800038207868FFF7F4F87B68022283F839205D
:101E90007B681B681B6823F440317B685A687B6849
:101EA0001B680A431A607B681B685B6B23F00701A1
:101EB0007B689A687B681B680A435A637B681B6867
:101EC0001B6C23F47F5323F03F037A68D1687A6850
:101ED00012680B4313647B680022DA637B6801227B
:101EE00083F83920002318460837BD4680BD00001E
:101EF00080B582B000AF78607B68002B01D10123F0
:101F00005FE0324B1B6B03F40003002B2ED07B6889
:101F10001B681B6803F00103012B07D1786800F0F0
:101F2000C1F80346002B21D001234AE07B681B68DF
:101F30005B6A03F02003202B08D10021786800F0B1
:101F4000F7F80346002B11D001233AE07B681B68A9
:101F5000DB6903F02003202B08D10121786800F011
:101F6000E7F80346002B01D001232AE07B681B68B9
:101F700000221A607B681B683F229A607B681B689E
:101F800000221A617B681B6800229A617B681B68CB
:101F90000022DA617B681B6800225A627B681B683A
:101FA00000225A637868FFF78BF87B680022DA63B7
:101FB0007B68002283F839207B68002283F8382070
:101FC000002318460837BD4680BD00BF00380240D8
:101FD00080B586B002AFF860B9607A603B60FB689C
:101FE00093F83830012B01D1022320E0FB68012255
:101FF00083F83820FB68022283F83920BB690093FC
:102000003B687A68B968F86800F084FAFB681B6876
:102010001A68FB681B6842F40C521A60FB681B6864
:102020001A68FB681B6842F001021A600023184618
:102030001037BD4680BD80B586B002AFF860B9608C
:102040007A603B60FB6893F83830012B01D10223A2
:1020500024E0FB68012283F83820FB68022283F821
:102060003920FB681B687A685A61FB690093BB6979
:102070003A68B968F86800F04DFAFB681B681A689E
:10208000FB681B6842F40C521A60FB681B681A68F4
:10209000FB681B6842F001021A60002318461037E3
:1020A000BD4680BD80B584B000AF78607B681B689A
:1020B0001B6823F005027B681B6842F004021A606B
:1020C000FFF770FDF86017E0FFF76CFD0246FB6854
:1020D000D31AB3F57A7F0FD97B68DB6B43F020020C
:1020E0007B68DA637B68032283F839207B680022EF
:1020F00083F83820032317E07B681B681B6803F014
:102100000103002BE0D17B681B681A687B681B68A1
:1021100022F40C521A607B68012283F839207B6814
:10212000002283F83820002318461037BD4680BDB2
:1021300080B584B000AF786039607B681B68243359
:10214000FB607B681B681A687B681B6842F00402AE
:102150001A603B68012B03D17B681B681C33FB6052
:10216000FFF720FDB86017E0FFF71CFD0246BB68D3
:10217000D31AB3F57A7F0FD97B68DB6B43F020026B
:102180007B68DA637B68032283F839207B6800224E
:1021900083F83820032316E0FB681B6803F0200354
:1021A000002BE1D17B681B681A687B681B6822F4EE
:1021B00064521A607B68012283F839207B68002210
:1021C00083F83820002318461037BD4680BD80B5FF
:1021D00084B000AF78607B681B685B68FB607B68DD
:1021E0001B681B68BB60FB6803F00103002B26D053
:1021F000BB6803F48073002B21D07B681B681A68CE
:102200007B681B6822F480721A607B68DB6B43F08A
:1022100001027B68DA637B681B6801229A607B6835
:10222000042283F839207B68002283F838207B68F9
:102230005B69002B03D07B685B6978689847FB6813
:1022400003F02003002B26D0BB6803F40053002BBF
:1022500021D07B681B681A687B681B6822F40052D7
:102260001A607B681B6820229A607B68DB6B43F0F6
:1022700002027B68DA637B68042283F839207B687A
:10228000002283F838207B685B69002B03D07B68D1
:102290005B6978689847FB6803F00803002B26D039
:1022A000BB6803F40063002B21D07B681B681A68AD
:1022B0007B681B6822F400621A607B681B68082236
:1022C0009A607B68DB6B43F004027B68DA637B68AF
:1022D000042283F839207B68002283F838207B6849
:1022E0005B69002B03D07B685B6978689847FB6863
:1022F00003F00403002B13D0BB6803F48063002BAE
:102300000ED07B681B681A687B681B6822F48062A9
:102310001A607B681B6804229A60786800F053F8A2
:10232000FB6803F00203002B24D0BB6803F40073A6
:10233000002B1FD07B681B681A687B681B6822F41F
:1023400000721A607B681B6802229A607B68DA6BF5
:102350007B68DA637B68012283F839207B6800227E
:1023600083F838207B681B69002B03D07B681B69CE
:1023700078689847FB6803F01003002B1FD0BB68F8
:1023800003F48053002B1AD07B681B681A687B68A3
:102390001B6822F480521A607B681B6810229A60C6
:1023A0007B68DA6B7B68DA637B68012283F839200B
:1023B0007B68002283F83820786800F00EF800BFB0
:1023C0001037BD4680BD80B483B000AF786000BFD9
:1023D0000C37BD465DF8047B704780B483B000AF16
:1023E000786000BF0C37BD465DF8047B7047000085
:1023F00080B487B000AF786039607B685B68B3F504
:10240000403F7B6893F83830012B01D1022379E0FB
:102410007B68012283F838207B68022283F8392008
:102420003B681B0118337A6813443B613B695A6867
:102430003B699B681B0413437B61354BFB603B6925
:102440005B680A2B03D03B695B68092B07D13B69AA
:10245000DB6803F07F437A6913437B6105E03B69E6
:10246000DB681B067A6913437B613B68002B20D134
:102470007B681B685A6AFB68DB4302EA03017B68DE
:102480001B687A690A435A627B681B683A6912685A
:102490009A613B695B680A2B03D03B695B68092B37
:1024A00027D13B69DA687B681B6822F07F429A6219
:1024B0001FE07B681B68DA69FB68DB4302EA030103
:1024C0007B681B687A690A43DA617B681B683A6932
:1024D00012681A613B695B680A2B03D03B695B6831
:1024E000092B06D13B69DA687B681B6822F07F42C2
:1024F0001A627B68012283F839207B68002283F806
:102500003820002318461C37BD465DF8047B704711
:102510000F0003FF80B48BB000AFF860B9607A6041
:102520003B60FB681B685B6C03F040413B681A042E
:102530003B6B1A43FB681B680A435A64FB681B68C1
:102540007A68DA63FB685B68B3F5403F74D1BB68B7
:1025500003F07F433B62BB6803F47F03FB61BB680E
:1025600003F47F43BB61BB68DBB27B61FB689B68A4
:10257000002B08D1BA69FB691A433B6A13437A6995
:1025800013437B6253E0FB689B68012B06D1BA6959
:10259000FB6913437A6913437B6248E0FB689B68DD
:1025A000022B11D1FB69DB0CFB61BB699B0ABB6190
:1025B0007B69DB087B61BB695A01FB69DB02134362
:1025C0007A6913437B6232E0FB689B68032B17D167
:1025D0003B6ADB0F3B62FB69DB0CFB61BB69DB0A1F
:1025E000BB617B69DB087B61BB695A01FB699B02AC
:1025F0001A433B6ADB0313437A6913437B6216E099
:102600003B6A1B0F3B62FB691B0DFB61BB691B0B2C
:10261000BB617B691B097B61BB691A01FB691B02FA
:102620001A433B6A1B0313437A6913437B62FB68BB
:102630001B687A6A9A6303E0FB681B68BA68DA6011
:1026400000BF2C37BD465DF8047B704780B489B06D
:1026500000AF7860396000237B6100233B61002379
:10266000BB610023FB6177E10122FB6902FA03F3FE
:102670007B613B681B687A6913403B613A697B69FF
:102680009A4240F066813B685B68012B0BD03B6847
:102690005B68022B07D03B685B68112B03D03B685B
:1026A0005B68122B30D17B689B68BB61FB695B0068
:1026B000032202FA03F3DB43BA691340BB613B68B0
:1026C000DA68FB695B0002FA03F3BA691343BB6182
:1026D0007B68BA699A607B685B68BB610122FB69B1
:1026E00002FA03F3DB43BA691340BB613B685B68E2
:1026F0001B0903F00102FB6902FA03F3BA691343F1
:10270000BB617B68BA695A607B68DB68BB61FB6947
:102710005B00032202FA03F3DB43BA691340BB6197
:102720003B689A68FB695B0002FA03F3BA691343DA
:10273000BB617B68BA69DA603B685B68022B03D0D7
:102740003B685B68122B23D1FB69DA087B6808328F
:1027500053F82230BB61FB6903F007039B000F2293
:1027600002FA03F3DB43BA691340BB613B681A69A1
:10277000FB6903F007039B0002FA03F3BA691343F2
:10278000BB61FB69DA087B680832B96943F822103B
:102790007B681B68BB61FB695B00032202FA03F3E1
:1027A000DB43BA691340BB613B685B6803F003021B
:1027B000FB695B0002FA03F3BA691343BB617B68F0
:1027C000BA691A603B685B6803F08053002B00F025
:1027D000C0800023FB60654B5B6C644A43F480431C
:1027E0005364624B5B6C03F48043FB60FB68604A9C
:1027F000FB699B08023352F82330BB61FB6903F08D
:1028000003039B000F2202FA03F3DB43BA69134070
:10281000BB617B68574A934237D07B68564A9342E4
:1028200031D07B68554A93422BD07B68544A9342FF
:1028300025D07B68534A93421FD07B68524A93420B
:1028400019D07B68514A934213D07B68504A934217
:102850000DD07B684F4A934207D07B684E4A934223
:1028600001D1092312E00A2310E008230EE0072318
:102870000CE006230AE0052308E0042306E0032316
:1028800004E0022302E0012300E00023FA6902F0E1
:10289000030292009340BA691343BB613449FB6958
:1028A0009B080233BA6941F823203C4B1B68BB618B
:1028B0003B69DB43BA691340BB613B685B6803F467
:1028C0008033002B03D0BA693B691343BB61334AA1
:1028D000BB691360314B5B68BB613B69DB43BA6921
:1028E0001340BB613B685B6803F40033002B03D0EB
:1028F000BA693B691343BB61284ABB695360274BE4
:102900009B68BB613B69DB43BA691340BB613B68B1
:102910005B6803F48013002B03D0BA693B6913434F
:10292000BB611E4ABB6993601C4BDB68BB613B69A2
:10293000DB43BA691340BB613B685B6803F4001377
:10294000002B03D0BA693B691343BB61134ABB69CF
:10295000D360FB690133FB61FB690F2B7FF684AE0B
:1029600000BF2437BD465DF8047B70470038024045
:10297000003801400000024000040240000802400C
:10298000000C0240001002400014024000180240F7
:10299000001C02400020024000240240003C014094
:1029A00080B483B000AF78600B467B8013467B70A9
:1029B0007B78002B03D07A887B689A6103E07B8860
:1029C0001A047B689A6100BF0C37BD465DF8047B32
:1029D0007047000080B582B000AF0346FB80084B13
:1029E0005A69FB881340002B06D0054AFB885361C7
:1029F000FB881846FDF7CCFD00BF0837BD4680BDFB
:102A0000003C014080B584B000AF78607B68002B4B
:102A100001D101231FE17B6893F83D30DBB2002B2D
:102A200006D17B68002283F83C207868FEF762FBC1
:102A30007B68242283F83D207B681B681A687B68CA
:102A40001B6822F001021A607B681B681A687B68A9
:102A50001B6842F400421A607B681B681A687B6836
:102A60001B6822F400421A6001F0A0FFF8607B6846
:102A70005B687B4A934207D8FB687A4A934294BFCB
:102A800001230023DBB206E0FB68774A934294BF40
:102A900001230023DBB2002B01D00123DBE0FB6824
:102AA000724AA2FB03239B0CBB607B681B685B68BC
:102AB00023F03F017B681B68BA680A435A607B6851
:102AC0001B681B6A23F03F017B685B68644A934282
:102AD00002D8BB68013309E0BB684FF4967202FB71
:102AE00003F3634AA2FB03239B0901337A6812684C
:102AF0000B4313627B681B68DB6923F44F4222F0AF
:102B0000FF027B685B6856498B420DD8FB68591EF3
:102B10007B685B685B00B1FBF3F30133C3F30B032A
:102B2000042B38BF04234FE07B689B68002B11D136
:102B3000FB68581E7B6859680B465B000B44B0FB72
:102B4000F3F30133C3F30B03002B0CBF012300236A
:102B5000DBB212E0FB68581E7B6859680B469B008D
:102B60000B4499000B44B0FBF3F30133C3F30B03A5
:102B7000002B0CBF01230023DBB2002B01D001236B
:102B800022E07B689B68002B0ED1FB68581E7B6897
:102B900059680B465B000B44B0FBF3F30133C3F3FE
:102BA0000B0343F400430FE0FB68581E7B68596831
:102BB0000B469B000B4499000B44B0FBF3F301332D
:102BC000C3F30B0343F44043796809681343CB61B3
:102BD0007B681B681B6823F0C0017B68DA697B682F
:102BE0001B6A1A437B681B680A431A607B681B6870
:102BF0009B6823F4034323F0FF037A6811697A6822
:102C0000D26811437A6812680B4393607B681B6833
:102C1000DB6823F0FF017B685A697B689B691A4374
:102C20007B681B680A43DA607B681B681A687B68EC
:102C30001B6842F001021A607B6800221A647B68FC
:102C4000202283F83D207B6800221A637B680022E3
:102C500083F83E20002318461037BD4680BD00BFD4
:102C6000A08601007F841E00FF083D0083DE1B4319
:102C7000D34D621080B588B002AFF86008461146A7
:102C80001A4603467B810B463B811346FB80FEF7C9
:102C900089FF7861FB6893F83D30DBB2202B40F070
:102CA000D9807B690093192301226D49F86800F0EF
:102CB0007BFC0346002B01D00223CCE0FB6893F899
:102CC0003C30012B01D10223C5E0FB68012283F8CF
:102CD0003C20FB681B681B6803F00103012B07D035
:102CE000FB681B681A68FB681B6842F001021A60E7
:102CF000FB681B681A68FB681B6822F400621A6094
:102D0000FB68212283F83D20FB68402283F83E20A7
:102D1000FB6800221A64FB683A6A5A62FB68BA8C44
:102D20005A85FB685B8D9AB2FB681A85FB684D4A31
:102D3000DA62F8883A8979897B690193BB6A0093E2
:102D40000346F86800F0B6FA0346002B52D0012380
:102D500081E07A69B96AF86800F0FCFC0346002B50
:102D60000DD0FB681B6C042B07D1FB681B681A682D
:102D7000FB681B6842F400721A6001236BE0FB6879
:102D80005B6A1A78FB681B681A61FB685B6A5A1CED
:102D9000FB685A62FB681B8D013B9AB2FB681A857F
:102DA000FB685B8D9BB2013B9AB2FB685A85FB685E
:102DB0001B685B6903F00403042B1BD1FB681B8DAC
:102DC000002B17D0FB685B6A1A78FB681B681A61D6
:102DD000FB685B6A5A1CFB685A62FB681B8D013BEF
:102DE0009AB2FB681A85FB685B8D9BB2013B9AB275
:102DF000FB685A85FB681B8D002BAAD17A69B96ADA
:102E0000F86800F0E8FC0346002B0DD0FB681B6C53
:102E1000042B07D1FB681B681A68FB681B6842F427
:102E200000721A60012316E0FB681B681A68FB68D1
:102E30001B6842F400721A60FB68202283F83D2070
:102E4000FB68002283F83E20FB68002283F83C20C8
:102E5000002300E0022318461837BD4680BD00BF9E
:102E6000020010000000FFFF80B58CB002AFF860D8
:102E7000084611461A4603467B810B463B811346A2
:102E8000FB80FEF78FFE7862FB6893F83D30DBB283
:102E9000202B40F008827B6A0093192301227B4992
:102EA000F86800F081FB0346002B01D00223FBE110
:102EB000FB6893F83C30012B01D10223F4E1FB685D
:102EC000012283F83C20FB681B681B6803F00103A8
:102ED000012B07D0FB681B681A68FB681B6842F06F
:102EE00001021A60FB681B681A68FB681B6822F401
:102EF00000621A60FB68222283F83D20FB684022B2
:102F000083F83E20FB6800221A64FB683A6B5A6221
:102F1000FB68BA8E5A85FB685B8D9AB2FB681A858E
:102F2000FB685B4ADA62F8883A8979897B6A01939F
:102F3000BB6B00930346F86800F050FA0346002B81
:102F400001D00123B0E1FB681B8D002B13D10023BE
:102F50003B62FB681B685B693B62FB681B689B69A3
:102F60003B623B6AFB681B681A68FB681B6842F49B
:102F700000721A6084E1FB681B8D012B1BD1FB687A
:102F80001B681A68FB681B6822F480621A600023C1
:102F9000FB61FB681B685B69FB61FB681B689B69E5
:102FA000FB61FB69FB681B681A68FB681B6842F4DD
:102FB00000721A6064E1FB681B8D022B1BD1FB6859
:102FC0001B681A68FB681B6822F480621A60FB6841
:102FD0001B681A68FB681B6842F400621A600023D1
:102FE000BB61FB681B685B69BB61FB681B689B6915
:102FF000BB61BB6944E100237B61FB681B685B69C3
:103000007B61FB681B689B697B617B6938E1FB68BE
:103010001B8D032B00F2F180FB681B8D012B23D14C
:103020007A6AB96BF86800F017FC0346002B01D0F0
:10303000012339E1FB681B681A69FB685B6AD2B23D
:103040001A70FB685B6A5A1CFB685A62FB681B8D2E
:10305000013B9AB2FB681A85FB685B8D9BB2013B12
:103060009AB2FB685A850BE1FB681B8D022B4ED18F
:103070007B6A0093BB6B00220649F86800F094FA63
:103080000346002B08D001230EE100BF0200100010
:103090000000FFFF04000100FB681B681A68FB6862
:1030A0001B6842F400721A60FB681B681A69FB68AF
:1030B0005B6AD2B21A70FB685B6A5A1CFB685A6280
:1030C000FB681B8D013B9AB2FB681A85FB685B8D20
:1030D0009BB2013B9AB2FB685A85FB681B681A6970
:1030E000FB685B6AD2B21A70FB685B6A5A1CFB68A9
:1030F0005A62FB681B8D013B9AB2FB681A85FB681C
:103100005B8D9BB2013B9AB2FB685A85B8E07B6A43
:103110000093BB6B00226649F86800F045FA03464D
:10312000002B01D00123BFE0FB681B681A68FB6815
:103130001B6822F480621A60FB681B681A69FB68CE
:103140005B6AD2B21A70FB685B6A5A1CFB685A62EF
:10315000FB681B8D013B9AB2FB681A85FB685B8D8F
:103160009BB2013B9AB2FB685A857B6A0093BB6BAA
:1031700000224F49F86800F017FA0346002B01D0EF
:10318000012391E0FB681B681A68FB681B6842F426
:1031900000721A60FB681B681A69FB685B6AD2B22E
:1031A0001A70FB685B6A5A1CFB685A62FB681B8DCD
:1031B000013B9AB2FB681A85FB685B8D9BB2013BB1
:1031C0009AB2FB685A85FB681B681A69FB685B6AE0
:1031D000D2B21A70FB685B6A5A1CFB685A62FB68C1
:1031E0001B8D013B9AB2FB681A85FB685B8D9BB215
:1031F000013B9AB2FB685A8542E07A6AB96BF8687B
:1032000000F02AFB0346002B01D001234CE0FB68B1
:103210001B681A69FB685B6AD2B21A70FB685B6A4A
:103220005A1CFB685A62FB681B8D013B9AB2FB6813
:103230001A85FB685B8D9BB2013B9AB2FB685A858D
:10324000FB681B685B6903F00403042B18D1FB685F
:103250001B681A69FB685B6AD2B21A70FB685B6A0A
:103260005A1CFB685A62FB681B8D013B9AB2FB68D3
:103270001A85FB685B8D9BB2013B9AB2FB685A854D
:10328000FB681B8D002B7FF4C2AEFB68202283F805
:103290003D20FB68002283F83E20FB68002283F873
:1032A0003C20002300E0022318462837BD4680BD9D
:1032B0000400010080B588B002AFF86008461146EE
:1032C0001A4603467B810B463B811346FB80FB6815
:1032D0001B681A68FB681B6842F480721A607B6A7C
:1032E00000933B6A00224FF00111F86800F05CF98E
:1032F0000346002B0CD0FB681B681B6803F480732B
:10330000002B03D0FB684FF400721A6403235FE0C4
:103310007B89DBB21A46FB681B6802F0FE021A6169
:103320007B6A3A6A2C49F86800F095F90346002B4D
:1033300001D001234CE000237B61FB681B685B69C3
:103340007B61FB681B689B697B617B697A6A396A70
:10335000F86800F0FFF90346002B0DD0FB681B6CEA
:10336000042B07D1FB681B681A68FB681B6842F4D2
:1033700000721A6001232BE0FB88012B05D13B89E9
:10338000DAB2FB681B681A6121E03B891B0A9BB219
:10339000DAB2FB681B681A617A6A396AF86800F069
:1033A000D9F90346002B0DD0FB681B6C042B07D109
:1033B000FB681B681A68FB681B6842F400721A609D
:1033C000012305E03B89DAB2FB681B681A61002320
:1033D00018461837BD4680BD0200010080B588B090
:1033E00002AFF860084611461A4603467B810B4639
:1033F0003B811346FB80FB681B681A68FB681B68EF
:1034000042F480621A60FB681B681A68FB681B68DC
:1034100042F480721A607B6A00933B6A00224FF08C
:103420000111F86800F0C0F80346002B0CD0FB68CF
:103430001B681B6803F48073002B03D0FB684FF4F8
:1034400000721A640323A9E07B89DBB21A46FB6889
:103450001B6802F0FE021A617B6A3A6A5149F868F9
:1034600000F0F9F80346002B01D0012396E0002379
:103470007B61FB681B685B697B61FB681B689B6900
:103480007B617B697A6A396AF86800F063F9034600
:10349000002B0DD0FB681B6C042B07D1FB681B684D
:1034A0001A68FB681B6842F400721A60012375E019
:1034B000FB88012B05D13B89DAB2FB681B681A61D6
:1034C00021E03B891B0A9BB2DAB2FB681B681A61D8
:1034D0007A6A396AF86800F03DF90346002B0DD08E
:1034E000FB681B6C042B07D1FB681B681A68FB6820
:1034F0001B6842F400721A6001234FE03B89DAB284
:10350000FB681B681A617A6A396AF86800F022F968
:103510000346002B0DD0FB681B6C042B07D1FB6806
:103520001B681A68FB681B6842F400721A6001236A
:1035300034E0FB681B681A68FB681B6842F4807201
:103540001A607B6A00933B6A00224FF00111F86811
:1035500000F02AF80346002B0CD0FB681B681B68A0
:1035600003F48073002B03D0FB684FF400721A64DD
:10357000032313E07B89DBB243F00103DAB2FB687B
:103580001B681A617B6A3A6A0649F86800F063F8BA
:103590000346002B01D0012300E000231846183712
:1035A000BD4680BD0200010080B584B000AFF86068
:1035B000B9603B601346FB7125E03B68B3F1FF3F08
:1035C00021D0FEF7EFFA0246BB69D31A3A689A4255
:1035D00002D33B68002B16D1FB6800221A63FB68FC
:1035E000202283F83D20FB68002283F83E20FB6800
:1035F0001B6C43F02002FB681A64FB68002283F80E
:103600003C20012323E0BB681B0CDBB2012B0DD156
:10361000FB681B685B69DA43BB6813409BB2002BF5
:103620000CBF01230023DBB21A460CE0FB681B68C9
:103630009B69DA43BB6813409BB2002B0CBF01238C
:103640000023DBB21A46FB799A42B6D00023184613
:103650001037BD4680BD80B584B000AFF860B9605A
:103660007A603B6051E0FB681B685B6903F4806330
:10367000B3F5806F23D1FB681B681A68FB681B6871
:1036800042F400721A60FB681B686FF480625A6132
:10369000FB6800221A63FB68202283F83D20FB6848
:1036A000002283F83E20FB681B6C43F00402FB6899
:1036B0001A64FB68002283F83C20012346E07B6803
:1036C000B3F1FF3F21D0FEF76DFA02463B68D31AF3
:1036D0007A689A4202D37B68002B16D1FB680022DD
:1036E0001A63FB68202283F83D20FB68002283F8E0
:1036F0003E20FB681B6C43F02002FB681A64FB68E9
:10370000002283F83C20012320E0BB681B0CDBB2C5
:10371000012B0CD1FB681B685B69DA43BB68134063
:103720009BB2002B14BF01230023DBB20BE0FB682C
:103730001B689B69DA43BB6813409BB2002B14BF24
:1037400001230023DBB2002B8DD100231846103754
:10375000BD4680BD80B584B000AFF860B9607A60C6
:103760002DE0F86800F0CEF80346002B01D00123CD
:103770002DE0BB68B3F1FF3F21D0FEF713FA0246FC
:103780007B68D31ABA689A4202D3BB68002B16D161
:10379000FB6800221A63FB68202283F83D20FB6847
:1037A000002283F83E20FB681B6C43F02002FB687C
:1037B0001A64FB68002283F83C20012307E0FB68C1
:1037C0001B685B6903F08003802BCAD10023184675
:1037D0001037BD4680BD80B584B000AFF860B960D9
:1037E0007A602DE0F86800F08DF80346002B01D0D8
:1037F00001232DE0BB68B3F1FF3F21D0FEF7D2F9E2
:1038000002467B68D31ABA689A4202D3BB68002B7F
:1038100016D1FB6800221A63FB68202283F83D2042
:10382000FB68002283F83E20FB681B6C43F02002FB
:10383000FB681A64FB68002283F83C20012307E040
:10384000FB681B685B6903F00403042BCAD10023E7
:1038500018461037BD4680BD80B584B000AFF86013
:10386000B9607A6042E0FB681B685B6903F0100393
:10387000102B19D1FB681B686FF010025A61FB68AE
:1038800000221A63FB68202283F83D20FB68002297
:1038900083F83E20FB681A6CFB681A64FB68002200
:1038A00083F83C20012329E0FEF77CF902467B687F
:1038B000D31ABA689A4202D3BB68002B16D1FB68B0
:1038C00000221A63FB68202283F83D20FB68002257
:1038D00083F83E20FB681B6C43F02002FB681A64EF
:1038E000FB68002283F83C20012307E0FB681B688B
:1038F0005B6903F04003402BB5D100231846103715
:10390000BD4680BD80B483B000AF78607B681B6823
:103910005B6903F48063B3F5806F1BD17B681B6820
:103920006FF480625A617B6800221A637B682022F0
:1039300083F83D207B68002283F83E207B681B6C67
:1039400043F004027B681A647B68002283F83C2001
:10395000012300E0002318460C37BD465DF8047BC8
:10396000704780B483B000AF786039607B6893F8AB
:103970003D30DBB2202B29D17B68242283F83D2007
:103980007B681B681A687B681B6822F001021A605A
:103990007B681B685A6A7B681B6822F010025A62B7
:1039A0007B681B68596A7B681B683A680A435A62DD
:1039B0007B681B681A687B681B6842F001021A600A
:1039C0007B68202283F83D20002300E00223184674
:1039D0000C37BD465DF8047B704780B485B000AFFE
:1039E000786039600023FB817B6893F83D30DBB25F
:1039F000202B2AD17B68242283F83D207B681B681A
:103A00001A687B681B6822F001021A607B681B68D9
:103A10005B6AFB81FB8923F00F03FB813B689AB251
:103A2000FB891343FB817B681B68FA895A627B68B8
:103A30001B681A687B681B6842F001021A607B6889
:103A4000202283F83D20002300E00223184614378B
:103A5000BD465DF8047B704780B584B000AF7860E8
:103A60007B68002B01D10123BFE07B6893F8A13074
:103A7000DBB2002B06D17B68002283F8A020786897
:103A8000FDF7A2FB7B68022283F8A1207B681B68FC
:103A90009A697B681B6822F070429A617B681B6898
:103AA00099697B685A687B689B681A437B68DB6806
:103AB0001A437B681B691A437B681B680A439A6137
:103AC0007B681B6899687B681A684A4B0B40936057
:103AD0007B685B691B04FB607B681B6899687B687B
:103AE0009A69FB681A437B681B680A439A607B6883
:103AF0001B68D9687B681A683E4B0B40D3607B68B3
:103B0000DB691B04FB607B681B68D9687B681A6AE9
:103B1000FB681A437B681B680A43DA607B681B6892
:103B200019697B681A68334B0B4013617B685B6AC9
:103B30001B04FB607B681B6819697B689A6AFB68D9
:103B40001A437B681B680A431A617B681B685969C2
:103B50007B681A68274B0B4053617B68DB6A1B0448
:103B6000FB607B681B6859697B681A6BFB681A43AA
:103B70007B681B680A435A617B6893F835301B02E7
:103B8000FB607B6893F836301B04BB607B681B6866
:103B9000DA6A7B681B6802F07F42DA627B681B6826
:103BA000D96ABA68FB6813437A6892F834201A43DA
:103BB0007B681B680A43DA627B681B685A6B7B6808
:103BC0001B6842F006025A637B681B689A697B682F
:103BD0001B6842F001029A617B680022C3F8A420AE
:103BE0007B68012283F8A120002318461037BD46C8
:103BF00080BD00BF00F800F080B584B000AF7860F1
:103C00007B681B689B6BFB607B681B685B6BBB60A6
:103C1000FB6803F00403002B23D0BB6803F004030C
:103C2000002B1ED07B681B685A6B7B681B6822F0D8
:103C300004025A637B681B680422DA637B68D3F84A
:103C4000A43043F001027B68C3F8A4207B680422FF
:103C500083F8A1207B68002283F8A020786800F018
:103C60006FF8FB6803F00203002B23D0BB6803F05E
:103C70000203002B1ED07B681B685A6B7B681B6895
:103C800022F002025A637B681B680222DA637B68B7
:103C9000D3F8A43043F002027B68C3F8A4207B6809
:103CA000042283F8A1207B68002283F8A020786892
:103CB00000F046F8FB6803F00103002B1BD0BB6843
:103CC00003F00103002B16D07B681B685A6B7B68DE
:103CD0001B6822F001025A637B681B680122DA63C9
:103CE0007B68012283F8A1207B68002283F8A02052
:103CF000786806F099FDFB6803F00803002B1BD0E1
:103D0000BB6803F00803002B16D07B681B685A6B56
:103D10007B681B6822F008025A637B681B680822D4
:103D2000DA637B68012283F8A1207B68002283F894
:103D3000A020786800F00EF800BF1037BD4680BDA7
:103D400080B483B000AF786000BF0C37BD465DF82B
:103D5000047B704780B483B000AF786000BF0C373D
:103D6000BD465DF8047B7047B0B584B000AFF86025
:103D7000B9607A60FB6893F8A030012B01D102236F
:103D80002CE0FB68012283F8A020FB68022283F864
:103D9000A120FA687B68342101FB03F3134403F18B
:103DA0003802BB6814461D460FCD0FC40FCD0FC49B
:103DB0000FCD0FC42B6823607A68B968F86800F0EB
:103DC00049F8FB681B6801225A62FB68012283F8EC
:103DD000A120FB68002283F8A0200023184610379A
:103DE000BD46B0BD80B483B000AF786039607B68F9
:103DF00093F8A030012B01D1022323E07B6801223C
:103E000083F8A0207B68022283F8A1207B681B68CE
:103E10005A6B7B681B6822F001025A630C4A3B68AC
:103E200013647B681B685A6B7B681B6842F0010255
:103E30005A637B68012283F8A1207B68002283F803
:103E4000A020002318460C37BD465DF8047B704760
:103E50000068014080B489B000AFF860B9607A6052
:103E6000BB685A68FB681B68DB681B0CC3F30B0359
:103E700013441B04FB61FB681B681A467B68DB016B
:103E8000134484335B68FA68126811467A68D20179
:103E90000A44843203F470435360BB681A68FB68B9
:103EA0001B68DB681B0CC3F30B0313445A1CFB6831
:103EB0001B6819467B68DB010B4484331946FB6998
:103EC00013434B60BB68DA68FB681B68DB68C3F3AD
:103ED0000A0313441B04FB61FB681B681A467B68DA
:103EE000DB01134484339B68FA68126811467A68D0
:103EF000D2010A44843203F470439360BB689A6829
:103F0000FB681B68DB68C3F30A0313445A1CFB6895
:103F10001B6819467B68DB010B4484331946FB6937
:103F200013438B60FB681B681A467B68DB011344F4
:103F300084331B69FA68126811467A68D2010A4410
:103F4000843223F007031361FB681B681A467B6801
:103F5000DB01134484331A46BB681B691361BB68D9
:103F600093F831301B02FB61BB6893F832301B04BD
:103F7000BB61BB689B691B067B61FB681B681A46BB
:103F80007B68DB01134484339B69FB681B681A461A
:103F90007B68DB01134484331A4600239361BB68BA
:103FA00093F830301A46FB691A43BB691A43FB6821
:103FB0001B6819467B68DB010B44843319467B6917
:103FC00013438B61FB681B681A467B68DB01134453
:103FD00084335B69FA68126811467A68D2010A4430
:103FE000843223F0FF035361FB681B681A467B6829
:103FF000DB01134484331A46BB685B695361FB6879
:104000001B681A467B68DB0113448433DB69FA685A
:10401000126811467A68D2010A44843223F4E063BC
:1040200023F00703D361BB68DA69BB681B6AF968D0
:10403000096808467968C901014484311343CB619A
:10404000FB681B681A467B68DB01134484339B6A58
:10405000FB681B681A467B68DB01134484331A46ED
:1040600000239362FB681B681A467B68DB011344DC
:1040700084331A46BB685B6A9362BB681B69002B7A
:1040800002D10423FB611BE0BB681B69012B02D139
:104090000323FB6114E0BB681B69042B0BD0BB68D6
:1040A0001B69022B07D0BB681B69032B03D0BB68BD
:1040B0001B69072B02D10223FB6101E00123FB6195
:1040C000FB681B681A467B68DB0113448433DB6A98
:1040D000FA68126811467A68D2010A44843203F001
:1040E000E023D362BB689B6AFA6902FB03F31A04FC
:1040F000BB685968BB681B68CB1AF96901FB03F3FD
:104100000333F968096808467968C90101448431B4
:104110001343CB62FB681B681A467B68DB011344C0
:1041200084331B6BFA68126811467A68D2010A441C
:10413000843223F4FF6323F007031363FB681B68D7
:104140001A467B68DB01134484331A46BB68DB6A7A
:104150001363FB681B681A467B68DB0113448433D6
:104160001B68FA68126811467A68D2010A448432E0
:1041700043F00103136000BF2437BD465DF8047BA4
:104180007047000080B586B000AF78607B68002B78
:1041900001D101235BE27B681B6803F00103002B64
:1041A00075D0A34B9B6803F00C03042B0CD0A04BE1
:1041B0009B6803F00C03082B12D19D4B5B6803F442
:1041C0008003B3F5800F0BD1994B1B6803F40033C8
:1041D000002B5BD07B685B68002B57D1012336E254
:1041E0007B685B68B3F5803F06D1914B1B68904AB2
:1041F00043F4803313601DE07B685B68B3F5A02F48
:104200000CD18B4B1B688A4A43F480231360884B84
:104210001B68874A43F4803313600BE0844B1B68B0
:10422000834A23F480331360814B1B68804A23F454
:10423000802313607B685B68002B13D0FDF7B2FC12
:10424000386108E0FDF7AEFC02463B69D31A642BE7
:1042500001D90323FBE1764B1B6803F40033002BE9
:10426000F0D014E0FDF79EFC386108E0FDF79AFC01
:1042700002463B69D31A642B01D90323E7E16C4B57
:104280001B6803F40033002BF0D100E000BF7B6813
:104290001B6803F00203002B63D0654B9B6803F09F
:1042A0000C03002B0BD0624B9B6803F00C03082B14
:1042B0001CD15F4B5B6803F48003002B16D15C4B71
:1042C0001B6803F00203002B05D07B68DB68012B21
:1042D00001D00123BBE1564B1B6823F0F8027B6839
:1042E0001B69DB00524913430B603AE07B68DB68D3
:1042F000002B20D04F4B01221A60FDF753FC386190
:1043000008E0FDF74FFC02463B69D31A022B01D9A6
:1043100003239CE1464B1B6803F00203002BF0D003
:10432000434B1B6823F0F8027B681B69DB004049A4
:1043300013430B6015E03F4B00221A60FDF732FC7F
:10434000386108E0FDF72EFC02463B69D31A022BC8
:1043500001D903237BE1364B1B6803F00203002BDA
:10436000F0D17B681B6803F00803002B30D07B681A
:104370005B69002B16D0304B01221A60FDF712FC4E
:10438000386108E0FDF70EFC02463B69D31A022BA8
:1043900001D903235BE1264B5B6F03F00203002B83
:1043A000F0D015E0244B00221A60FDF7FBFB3861CA
:1043B00008E0FDF7F7FB02463B69D31A022B01D94F
:1043C000032344E11A4B5B6F03F00203002BF0D18F
:1043D0007B681B6803F00403002B00F0A08000231F
:1043E000FB75134B1B6C03F08053002B0FD1002384
:1043F000BB600F4B1B6C0E4A43F0805313640C4B95
:104400001B6C03F08053BB60BB680123FB750B4B37
:104410001B6803F48073002B21D1084B1B68074AEB
:1044200043F480731360FDF7BDFB386111E000BFFA
:104430000038024000004742800E474200700040B2
:10444000FDF7B0FB02463B69D31A022B01D90323C7
:10445000FDE0814B1B6803F48073002BF0D07B6878
:104460009B68012B06D17D4B1B6F7C4A43F00103F7
:1044700013671CE07B689B68052B0CD1774B1B6F87
:10448000764A43F004031367744B1B6F734A43F07F
:10449000010313670BE0714B1B6F704A23F001039C
:1044A00013676E4B1B6F6D4A23F0040313677B6821
:1044B0009B68002B15D0FDF775FB38610AE0FDF70E
:1044C00071FB02463B69D31A41F28832934201D90B
:1044D0000323BCE0614B1B6F03F00203002BEED003
:1044E00014E0FDF75FFB38610AE0FDF75BFB024675
:1044F0003B69D31A41F28832934201D90323A6E0E3
:10450000564B1B6F03F00203002BEED1FB7D012BFA
:1045100005D1524B1B6C514A23F0805313647B68C6
:104520009B69002B00F092804C4B9B6803F00C03BE
:10453000082B5CD07B689B69022B41D1484B002241
:104540001A60FDF72FFB386108E0FDF72BFB0246F0
:104550003B69D31A022B01D9032378E03F4B1B6838
:1045600003F00073002BF0D17B68DA697B681B6A6B
:104570001A437B685B6A9B011A437B689B6A5B08F2
:10458000013B1B041A437B68DB6A1B063349134358
:104590004B60334B01221A60FDF704FB386108E0E1
:1045A000FDF700FB02463B69D31A022B01D9032316
:1045B0004DE02A4B1B6803F00073002BF0D045E060
:1045C000274B00221A60FDF7EDFA386108E0FDF78D
:1045D000E9FA02463B69D31A022B01D9032336E0DC
:1045E0001E4B1B6803F00073002BF0D12EE07B689C
:1045F0009B69012B01D1012329E0184B9B68FB60CB
:10460000FB6803F480027B68DB699A421CD1FB687B
:1046100003F03F027B681B6A9A4215D1FA6847F69D
:10462000C07313407A68526A93420DD1FB6803F459
:1046300040327B689B6A9A4206D1FB6803F0706245
:104640007B68DB6A9A4201D0012300E00023184610
:104650001837BD4680BD00BF0070004000380240E2
:104660006000474280B584B000AF786039607B68F5
:10467000002B01D10123CCE0684B1B6803F00F0332
:104680003A689A420CD9654B3A68D2B21A70634BB9
:104690001B6803F00F033A689A4201D00123B8E087
:1046A0007B681B6803F00203002B20D07B681B682B
:1046B00003F00403002B05D0594B9B68584A43F480
:1046C000E05393607B681B6803F00803002B05D060
:1046D000534B9B68524A43F460439360504B9B6832
:1046E00023F0F0027B689B684D4913438B607B6825
:1046F0001B6803F00103002B44D07B685B68012B2F
:1047000007D1474B1B6803F40033002B19D1012359
:104710007FE07B685B68022B03D07B685B68032BC0
:1047200007D13F4B1B6803F00073002B09D1012315
:104730006FE03B4B1B6803F00203002B01D1012308
:1047400067E0374B9B6823F003027B685B68344962
:1047500013438B60FDF726FAF8600AE0FDF722FAB2
:104760000246FB68D31A41F28832934201D90323EF
:104770004FE02B4B9B6803F00C027B685B689B004F
:104780009A42EBD1254B1B6803F00F033A689A421B
:104790000CD2224B3A68D2B21A70204B1B6803F03D
:1047A0000F033A689A4201D0012332E07B681B680C
:1047B00003F00403002B08D0194B9B6823F4E0524C
:1047C0007B68DB68164913438B607B681B6803F0CA
:1047D0000803002B09D0124B9B6823F460427B68CE
:1047E0001B69DB000E4913438B6000F021F8014682
:1047F0000B4B9B681B0903F00F030A4AD35C21FA99
:1048000003F3094A1360094B1B681846FCF7DEFEE8
:10481000002318461037BD4680BD00BF003C024053
:10482000003802403CC701080400002008000020B6
:10483000F0B585B000AF00237B600023FB60002350
:104840003B600023BB60504B9B6803F00C03042BC0
:1048500007D0082B08D0002B40F08D804B4BBB605D
:104860008CE04B4BBB6089E0474B5B6803F03F0338
:104870007B60454B5B6803F48003002B23D0424BE5
:104880005B689B094FF0000440F2FF114FF00002FB
:1048900003EA010504EA02063D4A02FB06F1002292
:1048A00002FB05F20A443A49A5FB010153181946D7
:1048B0007B684FF000041A462346FBF7E9FC0346E9
:1048C0000C46FB6049E0304B5B689B094FF00004ED
:1048D00040F2FF114FF0000203EA010504EA02066C
:1048E000294632464FF000034FF00004540144EAD9
:1048F000D1644B0119462246491B62EB06024FF078
:1049000000034FF00004940144EA91648B015B1AA8
:1049100064EB02044FF000014FF00002E20042EAB3
:104920005372D9000B4614465B1944EB06044FF052
:1049300000014FF00002A20242EA935299020B4694
:104940001446184621467B684FF000041A46234659
:10495000FBF79EFC03460C46FB600B4B5B681B0C95
:1049600003F0030301335B003B60FA683B68B2FB72
:10497000F3F3BB6002E0054BBB6000BFBB681846A9
:104980001437BD46F0BD00BF003802400024F400DB
:1049900040787D0180B400AF034B1B681846BD46CC
:1049A0005DF8047B704700BF0400002080B500AFB5
:1049B000FFF7F0FF0146054B9B689B0A03F00703D6
:1049C000034AD35C21FA03F3184680BD0038024045
:1049D0004CC7010880B500AFFFF7DCFF0146054B6F
:1049E0009B685B0B03F00703034AD35C21FA03F3D4
:1049F000184680BD003802404CC7010880B483B01F
:104A000000AF786039607B680F221A60124B9B6898
:104A100003F003027B685A600F4B9B6803F0F002BF
:104A20007B689A600C4B9B6803F4E0527B68DA6009
:104A3000094B9B68DB0803F4E0527B681A61074B63
:104A40001B6803F00F023B681A6000BF0C37BD46BD
:104A50005DF8047B704700BF00380240003C024014
:104A600080B586B000AF786000237B6100233B6196
:104A70007B681B6803F00103002B0BD17B681B686C
:104A800003F00203002B05D17B681B6803F0400391
:104A9000002B75D0AD4B00221A60FDF783F87861CA
:104AA00008E0FDF77FF802467B69D31A022B01D993
:104AB00003238BE1A64B1B6803F00063002BF0D1AE
:104AC0007B681B6803F00103002B09D07B685B68DF
:104AD0009A017B689B681B079D491343C1F884308A
:104AE0007B681B6803F00203002B1FD0984BD3F8A0
:104AF00084301B0F03F007033B617B685B689A01FE
:104B00007B68DB681B061A433B691B07904913430C
:104B1000C1F884308E4BD3F88C3023F01F027B68B1
:104B2000DB69013B8A491343C1F88C307B681B6801
:104B300003F04003002B0DD07B685B689A017B6813
:104B4000DB681B061A437B689B681B07804913437D
:104B5000C1F884307D4B01221A60FDF723F878619B
:104B600008E0FDF71FF802467B69D31A022B01D932
:104B700003232BE1764B1B6803F00063002BF0D07E
:104B80007B681B6803F00403002B05D17B681B685E
:104B900003F00803002B79D06E4B00221A60FDF75A
:104BA00001F8786108E0FCF7FDFF02467B69D31A43
:104BB000022B01D9032309E1654B1B6803F0005365
:104BC000B3F1005FEFD07B681B6803F00403002B98
:104BD00020D05F4BD3F888301B0F03F007033B61F5
:104BE0007B681B699A017B685B691B061A433B69FA
:104BF0001B0757491343C1F88830554BD3F88C3005
:104C000023F4F8527B681B6A013B1B025049134393
:104C1000C1F88C307B681B6803F00803002B1ED0A2
:104C20004B4BD3F888301B0E03F00F033B617B68BE
:104C30001B699A013B691B061A437B689B691B072A
:104C400043491343C1F88830414BD3F88C3023F4E7
:104C500040327B685B6A3E491343C1F88C303D4B60
:104C600001221A60FCF79EFF786108E0FCF79AFFCA
:104C700002467B69D31A022B01D90323A6E0344BE9
:104C80001B6803F00053B3F1005FEFD17B681B6832
:104C900003F02003002B00F08D800023FB602C4BE1
:104CA0001B6C2B4A43F080531364294B1B6C03F09D
:104CB0008053FB60FB68284B1B68274A43F48073D2
:104CC0001360FCF76FFF786108E0FCF76BFF0246AA
:104CD0007B69D31A022B01D9032377E01E4B1B6893
:104CE00003F48073002BF0D0194B1B6F03F4407357
:104CF0003B613B69002B39D07B689B6A03F44073AE
:104D00003A699A4232D0124B1B6F23F440733B61D5
:104D1000124B01221A60114B00221A600C4A3B69A7
:104D200013670B4B1B6F03F00103012B1ED1FCF724
:104D300039FF786114E0FCF735FF02467B69D31A2E
:104D400041F2883293420BD903233FE06800474287
:104D5000003802407000474200700040400E474259
:104D60001C4B1B6F03F00203002BE4D07B689B6A93
:104D700003F44073B3F5407F0DD1164B9B6823F4C9
:104D8000F8127B689B6A23F0704323F44073114947
:104D900013438B6005E00F4B9B680E4A23F4F81316
:104DA00093600C4B1A6F7B689B6AC3F30B03094932
:104DB00013430B677B681B6803F01003002B04D0C0
:104DC0007B6893F82C20044B1A6000231846183790
:104DD000BD4680BD00380240E011474280B582B038
:104DE00000AF78607B68002B01D1012356E07B681F
:104DF00000229A627B6893F85130DBB2002B06D117
:104E00007B68002283F850207868FCF7C1FA7B6841
:104E1000022283F851207B681B681A687B681B6834
:104E200022F040021A607B685A687B689B681A43CC
:104E30007B68DB681A437B681B691A437B685B6984
:104E40001A437B689B6903F400731A437B68DB6930
:104E50001A437B681B6A42EA03017B689A6A7B6893
:104E60001B680A431A607B689B691B0C03F00401F2
:104E70007B685A6A7B681B680A435A607B681B68B8
:104E8000DA697B681B6822F40062DA617B680022C1
:104E90005A657B68012283F85120002318460837A1
:104EA000BD4680BD80B588B000AFF860B9603B609A
:104EB0001346FB800023FB77FB6893F85030012BEF
:104EC00001D102231EE1FB68012283F85020FCF788
:104ED00069FEB861FB88FB82FB6893F85130DBB256
:104EE000012B02D00223FB7703E1BB68002B02D029
:104EF000FB88002B02D10123FB77FAE0FB68032239
:104F000083F85120FB6800225A65FB68BA681A636F
:104F1000FB68FA889A86FB68FA88DA86FB680022C2
:104F20009A63FB6800229A87FB680022DA87FB6895
:104F300000225A64FB6800221A64FB689B68B3F580
:104F4000004F07D1FB681B681A68FB681B6842F4B6
:104F500080421A60FB681B681B6803F04003402B0B
:104F600007D0FB681B681A68FB681B6842F04002A8
:104F70001A60FB68DB68B3F5006F4BD1FB685B68B8
:104F8000002B02D0FB8A012B3ED1FB681B6B1A88D9
:104F9000FB681B68DA60FB681B6B9A1CFB681A6372
:104FA000FB68DB8E9BB2013B9AB2FB68DA862BE092
:104FB000FB681B689B6803F00203022B12D1FB689D
:104FC0001B6B1A88FB681B68DA60FB681B6B9A1CFA
:104FD000FB681A63FB68DB8E9BB2013B9AB2FB68ED
:104FE000DA8611E0FCF7DEFD0246BB69D31A3A68A7
:104FF0009A4203D83B68B3F1FF3F02D13B68002BD4
:1050000002D10323FB7774E0FB68DB8E9BB2002B9D
:10501000CED14CE0FB685B68002B02D0FB8A012BF1
:1050200040D1FB681A6BFB681B680C3312781A704E
:10503000FB681B6B5A1CFB681A63FB68DB8E9BB218
:10504000013B9AB2FB68DA862CE0FB681B689B6820
:1050500003F00203022B13D1FB681A6BFB681B6879
:105060000C3312781A70FB681B6B5A1CFB681A63AE
:10507000FB68DB8E9BB2013B9AB2FB68DA8611E0DB
:10508000FCF790FD0246BB69D31A3A689A4203D8EE
:105090003B68B3F1FF3F02D13B68002B02D10323F1
:1050A000FB7726E0FB68DB8E9BB2002BCDD1BA6983
:1050B0003968F86800F094F80346002B02D0FB68CA
:1050C00020225A65FB689B68002B0AD100233B61B4
:1050D000FB681B68DB683B61FB681B689B683B6186
:1050E0003B69FB685B6D002B02D00123FB7700E07E
:1050F00000BFFB68012283F85120FB68002283F87F
:105100005020FB7F18462037BD4680BD80B584B057
:1051100000AFF860B9603B601346FB714CE03B6840
:10512000B3F1FF3F48D0FCF73DFD0246BB69D31AFF
:105130003A689A4202D93B68002B3DD1FB681B6854
:105140005A68FB681B6822F0E0025A60FB685B68E3
:10515000B3F5827F11D1FB689B68B3F5004F04D093
:10516000FB689B68B3F5806F07D1FB681B681A6802
:10517000FB681B6822F040021A60FB689B6AB3F56B
:10518000005F0FD1FB681B681A68FB681B6822F47C
:1051900000521A60FB681B681A68FB681B6842F4BF
:1051A00000521A60FB68012283F85120FB6800223C
:1051B00083F8502003230FE0FB681B689A68BB68E4
:1051C0001340BA689A420CBF01230023DBB21A468F
:1051D000FB799A42A3D1002318461037BD4680BD03
:1051E00080B588B002AFF860B9607A601B4B1B686D
:1051F0001B4AA2FB03235B0D4FF47A7202FB03F3FD
:105200007B61FB685B68B3F5827F12D17B6800939A
:10521000BB6800228021F868FFF778FF0346002B67
:1052200016D0FB685B6D43F02002FB685A650323D0
:105230000FE07B69002B0AD07B69013B7B61FB6837
:105240001B689B6803F08003802BF2D000E000BF56
:10525000002318461837BD4680BD00BF040000205B
:10526000819F5E1680B582B000AF78607B68002BAE
:1052700001D101231DE07B6893F83D30DBB2002BA8
:1052800006D17B68002283F83C20786800F015F88E
:105290007B68022283F83D207B681A687B680433B0
:1052A0001946104600F096FA7B68012283F83D20EB
:1052B000002318460837BD4680BD80B483B000AFD8
:1052C000786000BF0C37BD465DF8047B704780B442
:1052D00085B000AF78607B681B68DA687B681B6804
:1052E00042F00102DA607B681B689B6803F00703E9
:1052F000FB60FB68062B07D07B681B681A687B681D
:105300001B6842F001021A60002318461437BD469C
:105310005DF8047B704780B582B000AF78607B6831
:10532000002B01D101231DE07B6893F83D30DBB2F7
:10533000002B06D17B68002283F83C207868FCF7BC
:105340006FF87B68022283F83D207B681A687B68CF
:1053500004331946104600F03DFA7B68012283F8B9
:105360003D20002318460837BD4680BD80B584B077
:1053700000AF786039607B681B6801223968184685
:1053800000F078FC7B681B68154A934204D07B6868
:105390001B68144A934201D1012300E00023002B33
:1053A00007D07B681B685A6C7B681B6842F400421C
:1053B0005A647B681B689B6803F00703FB60FB680B
:1053C000062B07D07B681B681A687B681B6842F055
:1053D00001021A60002318461037BD4680BD00BF89
:1053E000000001400004014080B582B000AF786049
:1053F0007B681B681B6903F00203022B22D17B68C8
:105400001B68DB6803F00203022B1BD17B681B685F
:105410006FF002021A617B6801221A777B681B68B1
:105420009B6903F00303002B03D0786800F0B4F904
:1054300005E0786800F0A6F9786800F0B7F97B68B5
:1054400000221A777B681B681B6903F00403042B96
:1054500022D17B681B68DB6803F00403042B1BD19B
:105460007B681B686FF004021A617B6802221A775E
:105470007B681B689B6903F44073002B03D078683A
:1054800000F08AF905E0786800F07CF9786800F0AF
:105490008DF97B6800221A777B681B681B6903F013
:1054A0000803082B22D17B681B68DB6803F0080324
:1054B000082B1BD17B681B686FF008021A617B68A0
:1054C00004221A777B681B68DB6903F00303002B57
:1054D00003D0786800F060F905E0786800F052F9D0
:1054E000786800F063F97B6800221A777B681B6894
:1054F0001B6903F01003102B22D17B681B68DB684B
:1055000003F01003102B1BD17B681B686FF0100297
:105510001A617B6808221A777B681B68DB6903F4D1
:105520004073002B03D0786800F036F905E0786806
:1055300000F028F9786800F039F97B6800221A77C2
:105540007B681B681B6903F00103012B0ED17B688C
:105550001B68DB6803F00103012B07D17B681B6824
:105560006FF001021A617868FBF71EFD7B681B680B
:105570001B6903F08003802B0ED17B681B68DB68FE
:1055800003F08003802B07D17B681B686FF08002DB
:105590001A61786800F01AFC7B681B681B6903F0CD
:1055A0004003402B0ED17B681B68DB6803F040038F
:1055B000402B07D17B681B686FF040021A61786846
:1055C00000F0FEF87B681B681B6903F02003202BAA
:1055D0000ED17B681B68DB6803F02003202B07D10A
:1055E0007B681B686FF020021A61786800F0E4FBAA
:1055F00000BF0837BD4680BD80B584B000AFF860FD
:10560000B9607A60FB6893F83C30012B01D102232A
:10561000B4E0FB68012283F83C20FB68022283F897
:105620003D207B680C2B00F29F8001A252F823F0F2
:10563000655600086957000869570008695700084F
:10564000A5560008695700086957000869570008FF
:10565000E7560008695700086957000869570008AD
:1056600027570008FB681B68B968184600F052F914
:10567000FB681B689A69FB681B6842F008029A6124
:10568000FB681B689A69FB681B6822F004029A6138
:10569000FB681B689969BB681A69FB681B680A4349
:1056A0009A6162E0FB681B68B968184600F0A2F9CD
:1056B000FB681B689A69FB681B6842F400629A6188
:1056C000FB681B689A69FB681B6822F480629A6118
:1056D000FB681B689969BB681B691A02FB681B6839
:1056E0000A439A6141E0FB681B68B968184600F0FC
:1056F000F7F9FB681B68DA69FB681B6842F008026F
:10570000DA61FB681B68DA69FB681B6822F0040237
:10571000DA61FB681B68D969BB681A69FB681B689A
:105720000A43DA6121E0FB681B68B968184600F09B
:105730004BFAFB681B68DA69FB681B6842F400627D
:10574000DA61FB681B68DA69FB681B6822F4806217
:10575000DA61FB681B68D969BB681B691A02FB68C0
:105760001B680A43DA6100E000BFFB68012283F88E
:105770003D20FB68002283F83C20002318461037A8
:10578000BD4680BD80B483B000AF786000BF0C37E9
:10579000BD465DF8047B704780B483B000AF78608D
:1057A00000BF0C37BD465DF8047B704780B483B002
:1057B00000AF786000BF0C37BD465DF8047B7047D2
:1057C00080B483B000AF786000BF0C37BD465DF891
:1057D000047B704780B485B000AF786039607B6827
:1057E0001B68FB607B68404A934213D07B68B3F12F
:1057F000804F0FD07B683D4A93420BD07B683C4A78
:10580000934207D07B683B4A934203D07B683A4A75
:10581000934208D1FB6823F07003FB603B685B6830
:10582000FA681343FB607B682F4A93422BD07B6856
:10583000B3F1804F27D07B682C4A934223D07B68FA
:105840002B4A93421FD07B682A4A93421BD07B6825
:10585000294A934217D07B68284A934213D07B6829
:10586000274A93420FD07B68264A93420BD07B682D
:10587000254A934207D07B68244A934203D07B6831
:10588000234A934208D1FB6823F44073FB603B68D2
:10589000DB68FA681343FB60FB6823F080023B6817
:1058A0005B691343FB607B68FA681A603B689A681F
:1058B0007B68DA623B681A687B689A627B680A4A8E
:1058C000934203D07B680C4A934203D13B681A6928
:1058D0007B681A637B6801225A6100BF1437BD469A
:1058E0005DF8047B704700BF0000014000040040E9
:1058F00000080040000C004000040140004001404E
:10590000004401400048014000180040001C0040D5
:105910000020004080B487B000AF786039607B68B9
:105920001B6A23F001027B681A627B681B6A7B6139
:105930007B685B683B617B689B69FB60FB6823F06D
:105940007003FB60FB6823F00303FB603B681B688C
:10595000FA681343FB607B6923F002037B613B68B9
:105960009B687A6913437B617B68204A934203D02A
:105970007B681F4A93420CD17B6923F008037B614B
:105980003B68DB687A6913437B617B6923F004031E
:105990007B617B68154A934203D07B68144A93422B
:1059A00011D13B6923F480733B613B6923F400739D
:1059B0003B613B685B693A6913433B613B689B69A8
:1059C0003A6913433B617B683A695A607B68FA68BD
:1059D0009A613B685A687B685A637B687A691A6285
:1059E00000BF1C37BD465DF8047B704700000140D6
:1059F0000004014080B487B000AF786039607B68F4
:105A00001B6A23F010027B681A627B681B6A7B6149
:105A10007B685B683B617B689B69FB60FB6823F488
:105A2000E043FB60FB6823F44073FB603B681B684A
:105A30001B02FA681343FB607B6923F020037B6140
:105A40003B689B681B017A6913437B617B68224A30
:105A5000934203D07B68214A93420DD17B6923F0A6
:105A600080037B613B68DB681B017A6913437B61C0
:105A70007B6923F040037B617B68174A934203D024
:105A80007B68164A934213D13B6923F480633B61E0
:105A90003B6923F400633B613B685B699B003A69A7
:105AA00013433B613B689B699B003A6913433B612D
:105AB0007B683A695A607B68FA689A613B685A6801
:105AC0007B689A637B687A691A6200BF1C37BD469F
:105AD0005DF8047B704700BF0000014000040140F6
